{
  "_format": "hh-sol-artifact-1",
  "contractName": "LendingPoolTest",
  "sourceName": "contracts/LendingPoolTest.sol",
  "abi": [
    {
      "inputs": [],
      "stateMutability": "nonpayable",
      "type": "constructor"
    },
    {
      "anonymous": false,
      "inputs": [
        {
          "indexed": true,
          "internalType": "address",
          "name": "user",
          "type": "address"
        },
        {
          "indexed": true,
          "internalType": "address",
          "name": "token",
          "type": "address"
        },
        {
          "indexed": false,
          "internalType": "uint256",
          "name": "amount",
          "type": "uint256"
        }
      ],
      "name": "Borrowed",
      "type": "event"
    },
    {
      "anonymous": false,
      "inputs": [
        {
          "indexed": true,
          "internalType": "address",
          "name": "user",
          "type": "address"
        },
        {
          "indexed": true,
          "internalType": "address",
          "name": "token",
          "type": "address"
        },
        {
          "indexed": false,
          "internalType": "uint256",
          "name": "amount",
          "type": "uint256"
        }
      ],
      "name": "Deposited",
      "type": "event"
    },
    {
      "anonymous": false,
      "inputs": [
        {
          "indexed": true,
          "internalType": "address",
          "name": "user",
          "type": "address"
        },
        {
          "indexed": false,
          "internalType": "uint256",
          "name": "totalDebtUSD",
          "type": "uint256"
        },
        {
          "indexed": false,
          "internalType": "address[]",
          "name": "tokens",
          "type": "address[]"
        },
        {
          "indexed": false,
          "internalType": "uint256[]",
          "name": "amounts",
          "type": "uint256[]"
        }
      ],
      "name": "Liquidated",
      "type": "event"
    },
    {
      "anonymous": false,
      "inputs": [
        {
          "indexed": true,
          "internalType": "address",
          "name": "previousOwner",
          "type": "address"
        },
        {
          "indexed": true,
          "internalType": "address",
          "name": "newOwner",
          "type": "address"
        }
      ],
      "name": "OwnershipTransferred",
      "type": "event"
    },
    {
      "anonymous": false,
      "inputs": [
        {
          "indexed": true,
          "internalType": "address",
          "name": "user",
          "type": "address"
        },
        {
          "indexed": true,
          "internalType": "address",
          "name": "token",
          "type": "address"
        },
        {
          "indexed": false,
          "internalType": "uint256",
          "name": "amount",
          "type": "uint256"
        }
      ],
      "name": "PoolFunded",
      "type": "event"
    },
    {
      "anonymous": false,
      "inputs": [
        {
          "indexed": true,
          "internalType": "address",
          "name": "owner",
          "type": "address"
        },
        {
          "indexed": true,
          "internalType": "address",
          "name": "token",
          "type": "address"
        },
        {
          "indexed": false,
          "internalType": "uint256",
          "name": "amount",
          "type": "uint256"
        }
      ],
      "name": "PoolFundsWithdrawn",
      "type": "event"
    },
    {
      "anonymous": false,
      "inputs": [
        {
          "indexed": true,
          "internalType": "address",
          "name": "user",
          "type": "address"
        },
        {
          "indexed": true,
          "internalType": "address",
          "name": "token",
          "type": "address"
        },
        {
          "indexed": false,
          "internalType": "uint256",
          "name": "amount",
          "type": "uint256"
        }
      ],
      "name": "Repaid",
      "type": "event"
    },
    {
      "anonymous": false,
      "inputs": [
        {
          "indexed": true,
          "internalType": "address",
          "name": "token",
          "type": "address"
        },
        {
          "indexed": false,
          "internalType": "uint256",
          "name": "weight",
          "type": "uint256"
        }
      ],
      "name": "TokenAdded",
      "type": "event"
    },
    {
      "anonymous": false,
      "inputs": [
        {
          "indexed": true,
          "internalType": "address",
          "name": "user",
          "type": "address"
        },
        {
          "indexed": true,
          "internalType": "address",
          "name": "token",
          "type": "address"
        },
        {
          "indexed": false,
          "internalType": "uint256",
          "name": "amount",
          "type": "uint256"
        }
      ],
      "name": "Withdrawn",
      "type": "event"
    },
    {
      "inputs": [],
      "name": "CDT",
      "outputs": [
        {
          "internalType": "address",
          "name": "",
          "type": "address"
        }
      ],
      "stateMutability": "view",
      "type": "function"
    },
    {
      "inputs": [],
      "name": "CDT_WBNB_PAIR",
      "outputs": [
        {
          "internalType": "address",
          "name": "",
          "type": "address"
        }
      ],
      "stateMutability": "view",
      "type": "function"
    },
    {
      "inputs": [],
      "name": "LIQUIDATION_THRESHOLD",
      "outputs": [
        {
          "internalType": "uint256",
          "name": "",
          "type": "uint256"
        }
      ],
      "stateMutability": "view",
      "type": "function"
    },
    {
      "inputs": [],
      "name": "MAX_BORROW_RATIO",
      "outputs": [
        {
          "internalType": "uint256",
          "name": "",
          "type": "uint256"
        }
      ],
      "stateMutability": "view",
      "type": "function"
    },
    {
      "inputs": [],
      "name": "NATIVE_BNB",
      "outputs": [
        {
          "internalType": "address",
          "name": "",
          "type": "address"
        }
      ],
      "stateMutability": "view",
      "type": "function"
    },
    {
      "inputs": [],
      "name": "USDC",
      "outputs": [
        {
          "internalType": "address",
          "name": "",
          "type": "address"
        }
      ],
      "stateMutability": "view",
      "type": "function"
    },
    {
      "inputs": [],
      "name": "USDT",
      "outputs": [
        {
          "internalType": "address",
          "name": "",
          "type": "address"
        }
      ],
      "stateMutability": "view",
      "type": "function"
    },
    {
      "inputs": [],
      "name": "WBNB",
      "outputs": [
        {
          "internalType": "address",
          "name": "",
          "type": "address"
        }
      ],
      "stateMutability": "view",
      "type": "function"
    },
    {
      "inputs": [],
      "name": "WBNB_USDT_PAIR",
      "outputs": [
        {
          "internalType": "address",
          "name": "",
          "type": "address"
        }
      ],
      "stateMutability": "view",
      "type": "function"
    },
    {
      "inputs": [],
      "name": "WETH",
      "outputs": [
        {
          "internalType": "address",
          "name": "",
          "type": "address"
        }
      ],
      "stateMutability": "view",
      "type": "function"
    },
    {
      "inputs": [],
      "name": "WETH_USDT_PAIR",
      "outputs": [
        {
          "internalType": "address",
          "name": "",
          "type": "address"
        }
      ],
      "stateMutability": "view",
      "type": "function"
    },
    {
      "inputs": [
        {
          "internalType": "address",
          "name": "token",
          "type": "address"
        },
        {
          "internalType": "uint256",
          "name": "weight",
          "type": "uint256"
        }
      ],
      "name": "_addToken",
      "outputs": [],
      "stateMutability": "nonpayable",
      "type": "function"
    },
    {
      "inputs": [
        {
          "internalType": "address",
          "name": "token",
          "type": "address"
        },
        {
          "internalType": "uint256",
          "name": "amount",
          "type": "uint256"
        }
      ],
      "name": "borrow",
      "outputs": [],
      "stateMutability": "payable",
      "type": "function"
    },
    {
      "inputs": [
        {
          "internalType": "address",
          "name": "token",
          "type": "address"
        },
        {
          "internalType": "uint256",
          "name": "amount",
          "type": "uint256"
        }
      ],
      "name": "deposit",
      "outputs": [],
      "stateMutability": "payable",
      "type": "function"
    },
    {
      "inputs": [
        {
          "internalType": "address",
          "name": "token",
          "type": "address"
        },
        {
          "internalType": "uint256",
          "name": "amount",
          "type": "uint256"
        }
      ],
      "name": "fundPool",
      "outputs": [],
      "stateMutability": "payable",
      "type": "function"
    },
    {
      "inputs": [
        {
          "internalType": "address",
          "name": "user",
          "type": "address"
        }
      ],
      "name": "getBorrowCapacity",
      "outputs": [
        {
          "internalType": "uint256",
          "name": "cap",
          "type": "uint256"
        }
      ],
      "stateMutability": "view",
      "type": "function"
    },
    {
      "inputs": [
        {
          "internalType": "address",
          "name": "user",
          "type": "address"
        }
      ],
      "name": "getIndebtedness",
      "outputs": [
        {
          "internalType": "uint256",
          "name": "",
          "type": "uint256"
        }
      ],
      "stateMutability": "view",
      "type": "function"
    },
    {
      "inputs": [],
      "name": "getSupportedTokens",
      "outputs": [
        {
          "internalType": "address[]",
          "name": "",
          "type": "address[]"
        }
      ],
      "stateMutability": "view",
      "type": "function"
    },
    {
      "inputs": [
        {
          "internalType": "address",
          "name": "token",
          "type": "address"
        }
      ],
      "name": "getTokenPrice",
      "outputs": [
        {
          "internalType": "uint256",
          "name": "",
          "type": "uint256"
        }
      ],
      "stateMutability": "view",
      "type": "function"
    },
    {
      "inputs": [
        {
          "internalType": "address",
          "name": "user",
          "type": "address"
        }
      ],
      "name": "getTotalDebtUSD",
      "outputs": [
        {
          "internalType": "uint256",
          "name": "total",
          "type": "uint256"
        }
      ],
      "stateMutability": "view",
      "type": "function"
    },
    {
      "inputs": [
        {
          "internalType": "address",
          "name": "user",
          "type": "address"
        }
      ],
      "name": "liquidate",
      "outputs": [],
      "stateMutability": "nonpayable",
      "type": "function"
    },
    {
      "inputs": [],
      "name": "owner",
      "outputs": [
        {
          "internalType": "address",
          "name": "",
          "type": "address"
        }
      ],
      "stateMutability": "view",
      "type": "function"
    },
    {
      "inputs": [],
      "name": "renounceOwnership",
      "outputs": [],
      "stateMutability": "nonpayable",
      "type": "function"
    },
    {
      "inputs": [
        {
          "internalType": "address",
          "name": "token",
          "type": "address"
        },
        {
          "internalType": "uint256",
          "name": "amount",
          "type": "uint256"
        }
      ],
      "name": "repay",
      "outputs": [],
      "stateMutability": "payable",
      "type": "function"
    },
    {
      "inputs": [
        {
          "internalType": "address",
          "name": "",
          "type": "address"
        }
      ],
      "name": "reserves",
      "outputs": [
        {
          "internalType": "uint256",
          "name": "",
          "type": "uint256"
        }
      ],
      "stateMutability": "view",
      "type": "function"
    },
    {
      "inputs": [
        {
          "internalType": "uint256",
          "name": "",
          "type": "uint256"
        }
      ],
      "name": "supportedTokens",
      "outputs": [
        {
          "internalType": "address",
          "name": "",
          "type": "address"
        }
      ],
      "stateMutability": "view",
      "type": "function"
    },
    {
      "inputs": [
        {
          "internalType": "address",
          "name": "",
          "type": "address"
        }
      ],
      "name": "tokenConfigs",
      "outputs": [
        {
          "internalType": "uint256",
          "name": "weight",
          "type": "uint256"
        },
        {
          "internalType": "bool",
          "name": "isActive",
          "type": "bool"
        }
      ],
      "stateMutability": "view",
      "type": "function"
    },
    {
      "inputs": [
        {
          "internalType": "address",
          "name": "newOwner",
          "type": "address"
        }
      ],
      "name": "transferOwnership",
      "outputs": [],
      "stateMutability": "nonpayable",
      "type": "function"
    },
    {
      "inputs": [
        {
          "internalType": "address",
          "name": "",
          "type": "address"
        },
        {
          "internalType": "address",
          "name": "",
          "type": "address"
        }
      ],
      "name": "userCollateral",
      "outputs": [
        {
          "internalType": "uint256",
          "name": "amount",
          "type": "uint256"
        }
      ],
      "stateMutability": "view",
      "type": "function"
    },
    {
      "inputs": [
        {
          "internalType": "address",
          "name": "",
          "type": "address"
        },
        {
          "internalType": "address",
          "name": "",
          "type": "address"
        }
      ],
      "name": "userDebt",
      "outputs": [
        {
          "internalType": "uint256",
          "name": "",
          "type": "uint256"
        }
      ],
      "stateMutability": "view",
      "type": "function"
    },
    {
      "inputs": [
        {
          "internalType": "address",
          "name": "token",
          "type": "address"
        },
        {
          "internalType": "uint256",
          "name": "amount",
          "type": "uint256"
        }
      ],
      "name": "withdraw",
      "outputs": [],
      "stateMutability": "nonpayable",
      "type": "function"
    },
    {
      "inputs": [
        {
          "internalType": "address",
          "name": "token",
          "type": "address"
        },
        {
          "internalType": "uint256",
          "name": "amount",
          "type": "uint256"
        }
      ],
      "name": "withdrawPoolFunds",
      "outputs": [],
      "stateMutability": "nonpayable",
      "type": "function"
    },
    {
      "stateMutability": "payable",
      "type": "receive"
    }
  ],
  "bytecode": "0x60806040523480156200001157600080fd5b506200003262000026620000ef60201b60201c565b620000f760201b60201c565b60018081905550620000607355d398326f99059ff775485246999027b31979556064620001bb60201b60201c565b6200007460006046620001bb60201b60201c565b6200009b738ac76a51cc950d9822d68b83fe1ad97b32cd580d6064620001bb60201b60201c565b620000c2732170ed0880ac9a755fd29b2688956bd959f933f86046620001bb60201b60201c565b620000e9730cbd6fadcf8096cc9a43d90b45f65826102e3ece6032620001bb60201b60201c565b6200063b565b600033905090565b60008060009054906101000a900473ffffffffffffffffffffffffffffffffffffffff169050816000806101000a81548173ffffffffffffffffffffffffffffffffffffffff021916908373ffffffffffffffffffffffffffffffffffffffff1602179055508173ffffffffffffffffffffffffffffffffffffffff168173ffffffffffffffffffffffffffffffffffffffff167f8be0079c531659141344cd1fd0a4f28419497f9722a3daafe3b4186f6b6457e060405160405180910390a35050565b620001cb620003e260201b60201c565b600081118015620001dd575060648111155b6200021f576040517f08c379a00000000000000000000000000000000000000000000000000000000081526004016200021690620004fd565b60405180910390fd5b6000600460008473ffffffffffffffffffffffffffffffffffffffff1673ffffffffffffffffffffffffffffffffffffffff1681526020019081526020016000206000015414620002a7576040517f08c379a00000000000000000000000000000000000000000000000000000000081526004016200029e906200056f565b60405180910390fd5b604051806040016040528082815260200160011515815250600460008473ffffffffffffffffffffffffffffffffffffffff1673ffffffffffffffffffffffffffffffffffffffff1681526020019081526020016000206000820151816000015560208201518160010160006101000a81548160ff0219169083151502179055509050506006829080600181540180825580915050600190039060005260206000200160009091909190916101000a81548173ffffffffffffffffffffffffffffffffffffffff021916908373ffffffffffffffffffffffffffffffffffffffff1602179055508173ffffffffffffffffffffffffffffffffffffffff167ff4c563a3ea86ff1f4275e8c207df0375a51963f2b831b7bf4da8be938d92876c82604051620003d69190620005ac565b60405180910390a25050565b620003f2620000ef60201b60201c565b73ffffffffffffffffffffffffffffffffffffffff16620004186200047360201b60201c565b73ffffffffffffffffffffffffffffffffffffffff161462000471576040517f08c379a0000000000000000000000000000000000000000000000000000000008152600401620004689062000619565b60405180910390fd5b565b60008060009054906101000a900473ffffffffffffffffffffffffffffffffffffffff16905090565b600082825260208201905092915050565b7f496e76616c696420776569676874000000000000000000000000000000000000600082015250565b6000620004e5600e836200049c565b9150620004f282620004ad565b602082019050919050565b600060208201905081810360008301526200051881620004d6565b9050919050565b7f546f6b656e206578697374730000000000000000000000000000000000000000600082015250565b600062000557600c836200049c565b915062000564826200051f565b602082019050919050565b600060208201905081810360008301526200058a8162000548565b9050919050565b6000819050919050565b620005a68162000591565b82525050565b6000602082019050620005c360008301846200059b565b92915050565b7f4f776e61626c653a2063616c6c6572206973206e6f7420746865206f776e6572600082015250565b6000620006016020836200049c565b91506200060e82620005c9565b602082019050919050565b600060208201905081810360008301526200063481620005f2565b9050919050565b61413d806200064b6000396000f3fe6080604052600436106101e75760003560e01c806389a3027111610102578063d02641a011610095578063f2fde38b11610064578063f2fde38b146107ca578063f38d1198146107f3578063f3fef3a31461081e578063fcccc4d914610847576102c4565b8063d02641a0146106fc578063d3c7c2c714610739578063d66bd52414610764578063d8c94cd5146107a1576102c4565b806391c39b51116100d157806391c39b511461062c578063ad5c464814610669578063c54e44eb14610694578063c6255626146106bf576102c4565b806389a30271146105805780638da5cb5b146105ab5780638dd95002146105d657806390a8ae9b14610601576102c4565b80634b8a35291161017a5780636e0e5aa7116101495780636e0e5aa7146104d6578063715018a614610513578063876326ca1461052a57806387e2c18914610555576102c4565b80634b8a3529146104275780635c56c8cb1461044357806368fb5c5914610480578063698f7b21146104ab576102c4565b80632bfd5146116101b65780632bfd51461461039d5780632f865568146103b957806335a6b967146103e257806347e7ef241461040b576102c4565b806314c8ad2c146102c95780631b69dc5f1461030657806322867d78146103445780632b92a07d14610360576102c4565b366102c4576101f4610872565b6101fe60006108c1565b34600560008073ffffffffffffffffffffffffffffffffffffffff1673ffffffffffffffffffffffffffffffffffffffff168152602001908152602001600020600082825461024d9190612f6f565b92505081905550600073ffffffffffffffffffffffffffffffffffffffff163373ffffffffffffffffffffffffffffffffffffffff167faa1ff9f7fea9b0b6004b27d6dafaf7545a080426cc7115c6a8bd9019957c4353346040516102b29190612fb2565b60405180910390a36102c2610953565b005b600080fd5b3480156102d557600080fd5b506102f060048036038101906102eb9190613030565b61095c565b6040516102fd9190612fb2565b60405180910390f35b34801561031257600080fd5b5061032d60048036038101906103289190613070565b610981565b60405161033b9291906130b8565b60405180910390f35b61035e6004803603810190610359919061310d565b6109b2565b005b34801561036c57600080fd5b5061038760048036038101906103829190613030565b610c2a565b6040516103949190612fb2565b60405180910390f35b6103b760048036038101906103b2919061310d565b610c55565b005b3480156103c557600080fd5b506103e060048036038101906103db9190613070565b610d7b565b005b3480156103ee57600080fd5b506104096004803603810190610404919061310d565b611444565b005b6104256004803603810190610420919061310d565b6115cb565b005b610441600480360381019061043c919061310d565b611731565b005b34801561044f57600080fd5b5061046a60048036038101906104659190613070565b611a1a565b6040516104779190612fb2565b60405180910390f35b34801561048c57600080fd5b50610495611a60565b6040516104a2919061315c565b60405180910390f35b3480156104b757600080fd5b506104c0611a78565b6040516104cd919061315c565b60405180910390f35b3480156104e257600080fd5b506104fd60048036038101906104f89190613070565b611a90565b60405161050a9190612fb2565b60405180910390f35b34801561051f57600080fd5b50610528611c24565b005b34801561053657600080fd5b5061053f611c38565b60405161054c9190612fb2565b60405180910390f35b34801561056157600080fd5b5061056a611c3d565b604051610577919061315c565b60405180910390f35b34801561058c57600080fd5b50610595611c55565b6040516105a2919061315c565b60405180910390f35b3480156105b757600080fd5b506105c0611c6d565b6040516105cd919061315c565b60405180910390f35b3480156105e257600080fd5b506105eb611c96565b6040516105f8919061315c565b60405180910390f35b34801561060d57600080fd5b50610616611cae565b6040516106239190612fb2565b60405180910390f35b34801561063857600080fd5b50610653600480360381019061064e9190613070565b611cb3565b6040516106609190612fb2565b60405180910390f35b34801561067557600080fd5b5061067e611de5565b60405161068b919061315c565b60405180910390f35b3480156106a057600080fd5b506106a9611dfd565b6040516106b6919061315c565b60405180910390f35b3480156106cb57600080fd5b506106e660048036038101906106e19190613177565b611e15565b6040516106f3919061315c565b60405180910390f35b34801561070857600080fd5b50610723600480360381019061071e9190613070565b611e54565b6040516107309190612fb2565b60405180910390f35b34801561074557600080fd5b5061074e6122e1565b60405161075b9190613262565b60405180910390f35b34801561077057600080fd5b5061078b60048036038101906107869190613070565b61236f565b6040516107989190612fb2565b60405180910390f35b3480156107ad57600080fd5b506107c860048036038101906107c3919061310d565b612387565b005b3480156107d657600080fd5b506107f160048036038101906107ec9190613070565b61259d565b005b3480156107ff57600080fd5b50610808612620565b604051610815919061315c565b60405180910390f35b34801561082a57600080fd5b506108456004803603810190610840919061310d565b612638565b005b34801561085357600080fd5b5061085c612951565b604051610869919061315c565b60405180910390f35b6002600154036108b7576040517f08c379a00000000000000000000000000000000000000000000000000000000081526004016108ae906132e1565b60405180910390fd5b6002600181905550565b600460008273ffffffffffffffffffffffffffffffffffffffff1673ffffffffffffffffffffffffffffffffffffffff16815260200190815260200160002060010160009054906101000a900460ff16610950576040517f08c379a00000000000000000000000000000000000000000000000000000000081526004016109479061334d565b60405180910390fd5b50565b60018081905550565b6003602052816000526040600020602052806000526040600020600091509150505481565b60046020528060005260406000206000915090508060000154908060010160009054906101000a900460ff16905082565b6109ba610872565b6109c3826108c1565b60008111610a06576040517f08c379a00000000000000000000000000000000000000000000000000000000081526004016109fd906133b9565b60405180910390fd5b80600360003373ffffffffffffffffffffffffffffffffffffffff1673ffffffffffffffffffffffffffffffffffffffff16815260200190815260200160002060008473ffffffffffffffffffffffffffffffffffffffff1673ffffffffffffffffffffffffffffffffffffffff168152602001908152602001600020541015610ac5576040517f08c379a0000000000000000000000000000000000000000000000000000000008152600401610abc90613425565b60405180910390fd5b610ad0823383612956565b80600360003373ffffffffffffffffffffffffffffffffffffffff1673ffffffffffffffffffffffffffffffffffffffff16815260200190815260200160002060008473ffffffffffffffffffffffffffffffffffffffff1673ffffffffffffffffffffffffffffffffffffffff1681526020019081526020016000206000828254610b5c9190613445565b9250508190555080600560008473ffffffffffffffffffffffffffffffffffffffff1673ffffffffffffffffffffffffffffffffffffffff1681526020019081526020016000206000828254610bb29190612f6f565b925050819055508173ffffffffffffffffffffffffffffffffffffffff163373ffffffffffffffffffffffffffffffffffffffff167f0a3fbbea70e93f2daafa3102f5c9a1b8315e6d7a1e43e4bc020bc1162327470a83604051610c169190612fb2565b60405180910390a3610c26610953565b5050565b6002602052816000526040600020602052806000526040600020600091509150508060000154905081565b610c5d610872565b610c66826108c1565b60008111610ca9576040517f08c379a0000000000000000000000000000000000000000000000000000000008152600401610ca0906133b9565b60405180910390fd5b610cb4823383612956565b80600560008473ffffffffffffffffffffffffffffffffffffffff1673ffffffffffffffffffffffffffffffffffffffff1681526020019081526020016000206000828254610d039190612f6f565b925050819055508173ffffffffffffffffffffffffffffffffffffffff163373ffffffffffffffffffffffffffffffffffffffff167faa1ff9f7fea9b0b6004b27d6dafaf7545a080426cc7115c6a8bd9019957c435383604051610d679190612fb2565b60405180910390a3610d77610953565b5050565b610d83610872565b6000610d8e82611cb3565b905060008111610dd3576040517f08c379a0000000000000000000000000000000000000000000000000000000008152600401610dca906134c5565b60405180910390fd5b6050610dde83611a1a565b11610e1e576040517f08c379a0000000000000000000000000000000000000000000000000000000008152600401610e1590613531565b60405180910390fd5b600060068054905067ffffffffffffffff811115610e3f57610e3e613551565b5b604051908082528060200260200182016040528015610e6d5781602001602082028036833780820191505090505b509050600060068054905067ffffffffffffffff811115610e9157610e90613551565b5b604051908082528060200260200182016040528015610ebf5781602001602082028036833780820191505090505b50905060008060005b6006805490508110156111c857600060068281548110610eeb57610eea613580565b5b9060005260206000200160009054906101000a900473ffffffffffffffffffffffffffffffffffffffff1690506000600260008a73ffffffffffffffffffffffffffffffffffffffff1673ffffffffffffffffffffffffffffffffffffffff16815260200190815260200160002060008373ffffffffffffffffffffffffffffffffffffffff1673ffffffffffffffffffffffffffffffffffffffff168152602001908152602001600020600001549050600081111561113157670de0b6b3a7640000610fb783611e54565b82610fc291906135af565b610fcc9190613620565b85610fd79190612f6f565b945080600560008473ffffffffffffffffffffffffffffffffffffffff1673ffffffffffffffffffffffffffffffffffffffff16815260200190815260200160002060008282546110289190612f6f565b925050819055506000600260008b73ffffffffffffffffffffffffffffffffffffffff1673ffffffffffffffffffffffffffffffffffffffff16815260200190815260200160002060008473ffffffffffffffffffffffffffffffffffffffff1673ffffffffffffffffffffffffffffffffffffffff16815260200190815260200160002060000181905550818785815181106110c8576110c7613580565b5b602002602001019073ffffffffffffffffffffffffffffffffffffffff16908173ffffffffffffffffffffffffffffffffffffffff16815250508086858151811061111657611115613580565b5b602002602001018181525050838061112d90613651565b9450505b6000600360008b73ffffffffffffffffffffffffffffffffffffffff1673ffffffffffffffffffffffffffffffffffffffff16815260200190815260200160002060008473ffffffffffffffffffffffffffffffffffffffff1673ffffffffffffffffffffffffffffffffffffffff16815260200190815260200160002081905550505080806111c090613651565b915050610ec8565b508482101561120c576040517f08c379a0000000000000000000000000000000000000000000000000000000008152600401611203906136e5565b60405180910390fd5b6000858361121a9190613445565b905060008111156113db576000611244730cbd6fadcf8096cc9a43d90b45f65826102e3ece611e54565b9050600081670de0b6b3a76400008461125d91906135af565b6112679190613620565b90508060056000730cbd6fadcf8096cc9a43d90b45f65826102e3ece73ffffffffffffffffffffffffffffffffffffffff1673ffffffffffffffffffffffffffffffffffffffff16815260200190815260200160002054106113d85780600260008b73ffffffffffffffffffffffffffffffffffffffff1673ffffffffffffffffffffffffffffffffffffffff1681526020019081526020016000206000730cbd6fadcf8096cc9a43d90b45f65826102e3ece73ffffffffffffffffffffffffffffffffffffffff1673ffffffffffffffffffffffffffffffffffffffff16815260200190815260200160002060000160008282546113669190612f6f565b925050819055508060056000730cbd6fadcf8096cc9a43d90b45f65826102e3ece73ffffffffffffffffffffffffffffffffffffffff1673ffffffffffffffffffffffffffffffffffffffff16815260200190815260200160002060008282546113d09190613445565b925050819055505b50505b8185528184528673ffffffffffffffffffffffffffffffffffffffff167fcb722688c8955b4c96372fecda38abfc2bbd497f1983321cb14e95e72dd9807487878760405161142b939291906137c3565b60405180910390a2505050505050611441610953565b50565b61144c612ad9565b611454610872565b61145d826108c1565b6000811180156114ac575080600560008473ffffffffffffffffffffffffffffffffffffffff1673ffffffffffffffffffffffffffffffffffffffff1681526020019081526020016000205410155b6114eb576040517f08c379a00000000000000000000000000000000000000000000000000000000081526004016114e290613854565b60405180910390fd5b80600560008473ffffffffffffffffffffffffffffffffffffffff1673ffffffffffffffffffffffffffffffffffffffff168152602001908152602001600020600082825461153a9190613445565b925050819055506115538261154d611c6d565b83612b57565b8173ffffffffffffffffffffffffffffffffffffffff16611572611c6d565b73ffffffffffffffffffffffffffffffffffffffff167f0a26769576935ab95194f046baee424ca3b9e22591a677ffba6d36301f2f237e836040516115b79190612fb2565b60405180910390a36115c7610953565b5050565b6115d3610872565b6115dc826108c1565b6000811161161f576040517f08c379a0000000000000000000000000000000000000000000000000000000008152600401611616906133b9565b60405180910390fd5b61162a823383612956565b80600260003373ffffffffffffffffffffffffffffffffffffffff1673ffffffffffffffffffffffffffffffffffffffff16815260200190815260200160002060008473ffffffffffffffffffffffffffffffffffffffff1673ffffffffffffffffffffffffffffffffffffffff16815260200190815260200160002060000160008282546116b99190612f6f565b925050819055508173ffffffffffffffffffffffffffffffffffffffff163373ffffffffffffffffffffffffffffffffffffffff167f8752a472e571a816aea92eec8dae9baf628e840f4929fbcc2d155e6233ff68a78360405161171d9190612fb2565b60405180910390a361172d610953565b5050565b611739610872565b611742826108c1565b60008111611785576040517f08c379a000000000000000000000000000000000000000000000000000000000815260040161177c906133b9565b60405180910390fd5b80600560008473ffffffffffffffffffffffffffffffffffffffff1673ffffffffffffffffffffffffffffffffffffffff168152602001908152602001600020541015611807576040517f08c379a00000000000000000000000000000000000000000000000000000000081526004016117fe906138c0565b60405180910390fd5b6000670de0b6b3a764000061181b84611e54565b8361182691906135af565b6118309190613620565b9050600061183d33611a90565b9050600061184a33611cb3565b9050606460508361185b91906135af565b6118659190613620565b83826118719190612f6f565b11156118b2576040517f08c379a00000000000000000000000000000000000000000000000000000000081526004016118a99061392c565b60405180910390fd5b83600360003373ffffffffffffffffffffffffffffffffffffffff1673ffffffffffffffffffffffffffffffffffffffff16815260200190815260200160002060008773ffffffffffffffffffffffffffffffffffffffff1673ffffffffffffffffffffffffffffffffffffffff168152602001908152602001600020600082825461193e9190612f6f565b9250508190555083600560008773ffffffffffffffffffffffffffffffffffffffff1673ffffffffffffffffffffffffffffffffffffffff16815260200190815260200160002060008282546119949190613445565b925050819055506119a6853386612b57565b8473ffffffffffffffffffffffffffffffffffffffff163373ffffffffffffffffffffffffffffffffffffffff167f3fc499aeb0bb1cb58b6de8b02b3f86f4e7394e9690bef0110e32ced8a563104586604051611a039190612fb2565b60405180910390a3505050611a16610953565b5050565b600080611a2683611a90565b905060008114611a5557806064611a3c85611cb3565b611a4691906135af565b611a509190613620565b611a58565b60005b915050919050565b73be141893e4c6ad9272e8c04bab7e6a10604501a581565b734c2b1f4de009b58498b8b66e10a231a1b233277e81565b600080600090505b600680549050811015611c1e57600060068281548110611abb57611aba613580565b5b9060005260206000200160009054906101000a900473ffffffffffffffffffffffffffffffffffffffff1690506000600260008673ffffffffffffffffffffffffffffffffffffffff1673ffffffffffffffffffffffffffffffffffffffff16815260200190815260200160002060008373ffffffffffffffffffffffffffffffffffffffff1673ffffffffffffffffffffffffffffffffffffffff1681526020019081526020016000206000015490506000811115611c09576000670de0b6b3a7640000611b8984611e54565b83611b9491906135af565b611b9e9190613620565b90506064600460008573ffffffffffffffffffffffffffffffffffffffff1673ffffffffffffffffffffffffffffffffffffffff1681526020019081526020016000206000015482611bf091906135af565b611bfa9190613620565b85611c059190612f6f565b9450505b50508080611c1690613651565b915050611a98565b50919050565b611c2c612ad9565b611c366000612d00565b565b605081565b73f8104aaa719d31ea25dc494576593c10a8f929e681565b738ac76a51cc950d9822d68b83fe1ad97b32cd580d81565b60008060009054906101000a900473ffffffffffffffffffffffffffffffffffffffff16905090565b73bb4cdb9cbd36b01bd1cbaebf2de08d9173bc095c81565b605081565b600080600090505b600680549050811015611ddf57600060068281548110611cde57611cdd613580565b5b9060005260206000200160009054906101000a900473ffffffffffffffffffffffffffffffffffffffff1690506000600360008673ffffffffffffffffffffffffffffffffffffffff1673ffffffffffffffffffffffffffffffffffffffff16815260200190815260200160002060008373ffffffffffffffffffffffffffffffffffffffff1673ffffffffffffffffffffffffffffffffffffffff1681526020019081526020016000205490506000811115611dca57670de0b6b3a7640000611da783611e54565b82611db291906135af565b611dbc9190613620565b84611dc79190612f6f565b93505b50508080611dd790613651565b915050611cbb565b50919050565b732170ed0880ac9a755fd29b2688956bd959f933f881565b7355d398326f99059ff775485246999027b319795581565b60068181548110611e2557600080fd5b906000526020600020016000915054906101000a900473ffffffffffffffffffffffffffffffffffffffff1681565b60006061461480611e67575062aa36a746145b15611e7c57670de0b6b3a764000090506122dc565b611e85826108c1565b7355d398326f99059ff775485246999027b319795573ffffffffffffffffffffffffffffffffffffffff168273ffffffffffffffffffffffffffffffffffffffff161480611f125750738ac76a51cc950d9822d68b83fe1ad97b32cd580d73ffffffffffffffffffffffffffffffffffffffff168273ffffffffffffffffffffffffffffffffffffffff16145b15611f2757670de0b6b3a764000090506122dc565b600073ffffffffffffffffffffffffffffffffffffffff168273ffffffffffffffffffffffffffffffffffffffff161480611fa1575073bb4cdb9cbd36b01bd1cbaebf2de08d9173bc095c73ffffffffffffffffffffffffffffffffffffffff168273ffffffffffffffffffffffffffffffffffffffff16145b15611ff457611fed734c2b1f4de009b58498b8b66e10a231a1b233277e7355d398326f99059ff775485246999027b319795573bb4cdb9cbd36b01bd1cbaebf2de08d9173bc095c612dc4565b90506122dc565b732170ed0880ac9a755fd29b2688956bd959f933f873ffffffffffffffffffffffffffffffffffffffff168273ffffffffffffffffffffffffffffffffffffffff16036120895761208273be141893e4c6ad9272e8c04bab7e6a10604501a57355d398326f99059ff775485246999027b3197955732170ed0880ac9a755fd29b2688956bd959f933f8612dc4565b90506122dc565b730cbd6fadcf8096cc9a43d90b45f65826102e3ece73ffffffffffffffffffffffffffffffffffffffff168273ffffffffffffffffffffffffffffffffffffffff16036122a15760006120ef73bb4cdb9cbd36b01bd1cbaebf2de08d9173bc095c611e54565b90506000732170ed0880ac9a755fd29b2688956bd959f933f873ffffffffffffffffffffffffffffffffffffffff166370a0823173f8104aaa719d31ea25dc494576593c10a8f929e66040518263ffffffff1660e01b8152600401612154919061315c565b602060405180830381865afa158015612171573d6000803e3d6000fd5b505050506040513d601f19601f820116820180604052508101906121959190613961565b90506000730cbd6fadcf8096cc9a43d90b45f65826102e3ece73ffffffffffffffffffffffffffffffffffffffff166370a0823173f8104aaa719d31ea25dc494576593c10a8f929e66040518263ffffffff1660e01b81526004016121fa919061315c565b602060405180830381865afa158015612217573d6000803e3d6000fd5b505050506040513d601f19601f8201168201806040525081019061223b9190613961565b905060008111612280576040517f08c379a0000000000000000000000000000000000000000000000000000000008152600401612277906139da565b60405180910390fd5b80828461228d91906135af565b6122979190613620565b93505050506122dc565b6040517f08c379a00000000000000000000000000000000000000000000000000000000081526004016122d390613a46565b60405180910390fd5b919050565b6060600680548060200260200160405190810160405280929190818152602001828054801561236557602002820191906000526020600020905b8160009054906101000a900473ffffffffffffffffffffffffffffffffffffffff1673ffffffffffffffffffffffffffffffffffffffff168152602001906001019080831161231b575b5050505050905090565b60056020528060005260406000206000915090505481565b61238f612ad9565b6000811180156123a0575060648111155b6123df576040517f08c379a00000000000000000000000000000000000000000000000000000000081526004016123d690613ab2565b60405180910390fd5b6000600460008473ffffffffffffffffffffffffffffffffffffffff1673ffffffffffffffffffffffffffffffffffffffff1681526020019081526020016000206000015414612464576040517f08c379a000000000000000000000000000000000000000000000000000000000815260040161245b90613b1e565b60405180910390fd5b604051806040016040528082815260200160011515815250600460008473ffffffffffffffffffffffffffffffffffffffff1673ffffffffffffffffffffffffffffffffffffffff1681526020019081526020016000206000820151816000015560208201518160010160006101000a81548160ff0219169083151502179055509050506006829080600181540180825580915050600190039060005260206000200160009091909190916101000a81548173ffffffffffffffffffffffffffffffffffffffff021916908373ffffffffffffffffffffffffffffffffffffffff1602179055508173ffffffffffffffffffffffffffffffffffffffff167ff4c563a3ea86ff1f4275e8c207df0375a51963f2b831b7bf4da8be938d92876c826040516125919190612fb2565b60405180910390a25050565b6125a5612ad9565b600073ffffffffffffffffffffffffffffffffffffffff168173ffffffffffffffffffffffffffffffffffffffff1603612614576040517f08c379a000000000000000000000000000000000000000000000000000000000815260040161260b90613bb0565b60405180910390fd5b61261d81612d00565b50565b730cbd6fadcf8096cc9a43d90b45f65826102e3ece81565b612640610872565b612649826108c1565b6000811161268c576040517f08c379a0000000000000000000000000000000000000000000000000000000008152600401612683906133b9565b60405180910390fd5b80600260003373ffffffffffffffffffffffffffffffffffffffff1673ffffffffffffffffffffffffffffffffffffffff16815260200190815260200160002060008473ffffffffffffffffffffffffffffffffffffffff1673ffffffffffffffffffffffffffffffffffffffff16815260200190815260200160002060000154101561274e576040517f08c379a000000000000000000000000000000000000000000000000000000000815260040161274590613c1c565b60405180910390fd5b6000670de0b6b3a764000061276284611e54565b8361276d91906135af565b6127779190613620565b9050600061278433611cb3565b9050600061279133611a90565b9050828110156127d6576040517f08c379a00000000000000000000000000000000000000000000000000000000081526004016127cd90613c88565b60405180910390fd5b60506064836127e591906135af565b6127ef9190613620565b83826127fb9190613445565b101561283c576040517f08c379a000000000000000000000000000000000000000000000000000000000815260040161283390613cf4565b60405180910390fd5b83600260003373ffffffffffffffffffffffffffffffffffffffff1673ffffffffffffffffffffffffffffffffffffffff16815260200190815260200160002060008773ffffffffffffffffffffffffffffffffffffffff1673ffffffffffffffffffffffffffffffffffffffff16815260200190815260200160002060000160008282546128cb9190613445565b925050819055506128dd853386612b57565b8473ffffffffffffffffffffffffffffffffffffffff163373ffffffffffffffffffffffffffffffffffffffff167fd1c19fbcd4551a5edfb66d43d2e337c04837afda3482b42bdf569a8fccdae5fb8660405161293a9190612fb2565b60405180910390a350505061294d610953565b5050565b600081565b600073ffffffffffffffffffffffffffffffffffffffff168373ffffffffffffffffffffffffffffffffffffffff16036129d1578034146129cc576040517f08c379a00000000000000000000000000000000000000000000000000000000081526004016129c390613d60565b60405180910390fd5b612ad4565b60003414612a14576040517f08c379a0000000000000000000000000000000000000000000000000000000008152600401612a0b90613dcc565b60405180910390fd5b8273ffffffffffffffffffffffffffffffffffffffff166323b872dd8330846040518463ffffffff1660e01b8152600401612a5193929190613dec565b6020604051808303816000875af1158015612a70573d6000803e3d6000fd5b505050506040513d601f19601f82011682018060405250810190612a949190613e4f565b612ad3576040517f08c379a0000000000000000000000000000000000000000000000000000000008152600401612aca90613ec8565b60405180910390fd5b5b505050565b612ae1612f2e565b73ffffffffffffffffffffffffffffffffffffffff16612aff611c6d565b73ffffffffffffffffffffffffffffffffffffffff1614612b55576040517f08c379a0000000000000000000000000000000000000000000000000000000008152600401612b4c90613f34565b60405180910390fd5b565b600073ffffffffffffffffffffffffffffffffffffffff168373ffffffffffffffffffffffffffffffffffffffff1603612c3d5760008273ffffffffffffffffffffffffffffffffffffffff1682604051612bb190613f85565b60006040518083038185875af1925050503d8060008114612bee576040519150601f19603f3d011682016040523d82523d6000602084013e612bf3565b606091505b5050905080612c37576040517f08c379a0000000000000000000000000000000000000000000000000000000008152600401612c2e90613fe6565b60405180910390fd5b50612cfb565b8273ffffffffffffffffffffffffffffffffffffffff1663a9059cbb83836040518363ffffffff1660e01b8152600401612c78929190614006565b6020604051808303816000875af1158015612c97573d6000803e3d6000fd5b505050506040513d601f19601f82011682018060405250810190612cbb9190613e4f565b612cfa576040517f08c379a0000000000000000000000000000000000000000000000000000000008152600401612cf19061407b565b60405180910390fd5b5b505050565b60008060009054906101000a900473ffffffffffffffffffffffffffffffffffffffff169050816000806101000a81548173ffffffffffffffffffffffffffffffffffffffff021916908373ffffffffffffffffffffffffffffffffffffffff1602179055508173ffffffffffffffffffffffffffffffffffffffff168173ffffffffffffffffffffffffffffffffffffffff167f8be0079c531659141344cd1fd0a4f28419497f9722a3daafe3b4186f6b6457e060405160405180910390a35050565b6000808373ffffffffffffffffffffffffffffffffffffffff166370a08231866040518263ffffffff1660e01b8152600401612e00919061315c565b602060405180830381865afa158015612e1d573d6000803e3d6000fd5b505050506040513d601f19601f82011682018060405250810190612e419190613961565b905060008373ffffffffffffffffffffffffffffffffffffffff166370a08231876040518263ffffffff1660e01b8152600401612e7e919061315c565b602060405180830381865afa158015612e9b573d6000803e3d6000fd5b505050506040513d601f19601f82011682018060405250810190612ebf9190613961565b905060008111612f04576040517f08c379a0000000000000000000000000000000000000000000000000000000008152600401612efb906140e7565b60405180910390fd5b80670de0b6b3a764000083612f1991906135af565b612f239190613620565b925050509392505050565b600033905090565b6000819050919050565b7f4e487b7100000000000000000000000000000000000000000000000000000000600052601160045260246000fd5b6000612f7a82612f36565b9150612f8583612f36565b9250828201905080821115612f9d57612f9c612f40565b5b92915050565b612fac81612f36565b82525050565b6000602082019050612fc76000830184612fa3565b92915050565b600080fd5b600073ffffffffffffffffffffffffffffffffffffffff82169050919050565b6000612ffd82612fd2565b9050919050565b61300d81612ff2565b811461301857600080fd5b50565b60008135905061302a81613004565b92915050565b6000806040838503121561304757613046612fcd565b5b60006130558582860161301b565b92505060206130668582860161301b565b9150509250929050565b60006020828403121561308657613085612fcd565b5b60006130948482850161301b565b91505092915050565b60008115159050919050565b6130b28161309d565b82525050565b60006040820190506130cd6000830185612fa3565b6130da60208301846130a9565b9392505050565b6130ea81612f36565b81146130f557600080fd5b50565b600081359050613107816130e1565b92915050565b6000806040838503121561312457613123612fcd565b5b60006131328582860161301b565b9250506020613143858286016130f8565b9150509250929050565b61315681612ff2565b82525050565b6000602082019050613171600083018461314d565b92915050565b60006020828403121561318d5761318c612fcd565b5b600061319b848285016130f8565b91505092915050565b600081519050919050565b600082825260208201905092915050565b6000819050602082019050919050565b6131d981612ff2565b82525050565b60006131eb83836131d0565b60208301905092915050565b6000602082019050919050565b600061320f826131a4565b61321981856131af565b9350613224836131c0565b8060005b8381101561325557815161323c88826131df565b9750613247836131f7565b925050600181019050613228565b5085935050505092915050565b6000602082019050818103600083015261327c8184613204565b905092915050565b600082825260208201905092915050565b7f5265656e7472616e637947756172643a207265656e7472616e742063616c6c00600082015250565b60006132cb601f83613284565b91506132d682613295565b602082019050919050565b600060208201905081810360008301526132fa816132be565b9050919050565b7f556e737570706f7274656420746f6b656e000000000000000000000000000000600082015250565b6000613337601183613284565b915061334282613301565b602082019050919050565b600060208201905081810360008301526133668161332a565b9050919050565b7f416d6f756e74203d203000000000000000000000000000000000000000000000600082015250565b60006133a3600a83613284565b91506133ae8261336d565b602082019050919050565b600060208201905081810360008301526133d281613396565b9050919050565b7f546f6f206d756368000000000000000000000000000000000000000000000000600082015250565b600061340f600883613284565b915061341a826133d9565b602082019050919050565b6000602082019050818103600083015261343e81613402565b9050919050565b600061345082612f36565b915061345b83612f36565b925082820390508181111561347357613472612f40565b5b92915050565b7f4e6f206465627400000000000000000000000000000000000000000000000000600082015250565b60006134af600783613284565b91506134ba82613479565b602082019050919050565b600060208201905081810360008301526134de816134a2565b9050919050565b7f4865616c74687900000000000000000000000000000000000000000000000000600082015250565b600061351b600783613284565b9150613526826134e5565b602082019050919050565b6000602082019050818103600083015261354a8161350e565b9050919050565b7f4e487b7100000000000000000000000000000000000000000000000000000000600052604160045260246000fd5b7f4e487b7100000000000000000000000000000000000000000000000000000000600052603260045260246000fd5b60006135ba82612f36565b91506135c583612f36565b92508282026135d381612f36565b915082820484148315176135ea576135e9612f40565b5b5092915050565b7f4e487b7100000000000000000000000000000000000000000000000000000000600052601260045260246000fd5b600061362b82612f36565b915061363683612f36565b925082613646576136456135f1565b5b828204905092915050565b600061365c82612f36565b91507fffffffffffffffffffffffffffffffffffffffffffffffffffffffffffffffff820361368e5761368d612f40565b5b600182019050919050565b7f53686f727466616c6c0000000000000000000000000000000000000000000000600082015250565b60006136cf600983613284565b91506136da82613699565b602082019050919050565b600060208201905081810360008301526136fe816136c2565b9050919050565b600081519050919050565b600082825260208201905092915050565b6000819050602082019050919050565b61373a81612f36565b82525050565b600061374c8383613731565b60208301905092915050565b6000602082019050919050565b600061377082613705565b61377a8185613710565b935061378583613721565b8060005b838110156137b657815161379d8882613740565b97506137a883613758565b925050600181019050613789565b5085935050505092915050565b60006060820190506137d86000830186612fa3565b81810360208301526137ea8185613204565b905081810360408301526137fe8184613765565b9050949350505050565b7f496e76616c696400000000000000000000000000000000000000000000000000600082015250565b600061383e600783613284565b915061384982613808565b602082019050919050565b6000602082019050818103600083015261386d81613831565b9050919050565b7f4c6f772072657365727665000000000000000000000000000000000000000000600082015250565b60006138aa600b83613284565b91506138b582613874565b602082019050919050565b600060208201905081810360008301526138d98161389d565b9050919050565b7f45786365656473206c696d697400000000000000000000000000000000000000600082015250565b6000613916600d83613284565b9150613921826138e0565b602082019050919050565b6000602082019050818103600083015261394581613909565b9050919050565b60008151905061395b816130e1565b92915050565b60006020828403121561397757613976612fcd565b5b60006139858482850161394c565b91505092915050565b7f5a65726f20434454000000000000000000000000000000000000000000000000600082015250565b60006139c4600883613284565b91506139cf8261398e565b602082019050919050565b600060208201905081810360008301526139f3816139b7565b9050919050565b7f4e6f207072696365000000000000000000000000000000000000000000000000600082015250565b6000613a30600883613284565b9150613a3b826139fa565b602082019050919050565b60006020820190508181036000830152613a5f81613a23565b9050919050565b7f496e76616c696420776569676874000000000000000000000000000000000000600082015250565b6000613a9c600e83613284565b9150613aa782613a66565b602082019050919050565b60006020820190508181036000830152613acb81613a8f565b9050919050565b7f546f6b656e206578697374730000000000000000000000000000000000000000600082015250565b6000613b08600c83613284565b9150613b1382613ad2565b602082019050919050565b60006020820190508181036000830152613b3781613afb565b9050919050565b7f4f776e61626c653a206e6577206f776e657220697320746865207a65726f206160008201527f6464726573730000000000000000000000000000000000000000000000000000602082015250565b6000613b9a602683613284565b9150613ba582613b3e565b604082019050919050565b60006020820190508181036000830152613bc981613b8d565b9050919050565b7f4c6f7720636f6c6c61746572616c000000000000000000000000000000000000600082015250565b6000613c06600e83613284565b9150613c1182613bd0565b602082019050919050565b60006020820190508181036000830152613c3581613bf9565b9050919050565b7f4578636565647320636170616369747900000000000000000000000000000000600082015250565b6000613c72601083613284565b9150613c7d82613c3c565b602082019050919050565b60006020820190508181036000830152613ca181613c65565b9050919050565b7f45786365656473204c5456000000000000000000000000000000000000000000600082015250565b6000613cde600b83613284565b9150613ce982613ca8565b602082019050919050565b60006020820190508181036000830152613d0d81613cd1565b9050919050565b7f496e76616c696420424e42000000000000000000000000000000000000000000600082015250565b6000613d4a600b83613284565b9150613d5582613d14565b602082019050919050565b60006020820190508181036000830152613d7981613d3d565b9050919050565b7f424e42206e6f7420616c6c6f7765640000000000000000000000000000000000600082015250565b6000613db6600f83613284565b9150613dc182613d80565b602082019050919050565b60006020820190508181036000830152613de581613da9565b9050919050565b6000606082019050613e01600083018661314d565b613e0e602083018561314d565b613e1b6040830184612fa3565b949350505050565b613e2c8161309d565b8114613e3757600080fd5b50565b600081519050613e4981613e23565b92915050565b600060208284031215613e6557613e64612fcd565b5b6000613e7384828501613e3a565b91505092915050565b7f4552433230206661696c65640000000000000000000000000000000000000000600082015250565b6000613eb2600c83613284565b9150613ebd82613e7c565b602082019050919050565b60006020820190508181036000830152613ee181613ea5565b9050919050565b7f4f776e61626c653a2063616c6c6572206973206e6f7420746865206f776e6572600082015250565b6000613f1e602083613284565b9150613f2982613ee8565b602082019050919050565b60006020820190508181036000830152613f4d81613f11565b9050919050565b600081905092915050565b50565b6000613f6f600083613f54565b9150613f7a82613f5f565b600082019050919050565b6000613f9082613f62565b9150819050919050565b7f424e42206661696c000000000000000000000000000000000000000000000000600082015250565b6000613fd0600883613284565b9150613fdb82613f9a565b602082019050919050565b60006020820190508181036000830152613fff81613fc3565b9050919050565b600060408201905061401b600083018561314d565b6140286020830184612fa3565b9392505050565b7f4552433230206661696c00000000000000000000000000000000000000000000600082015250565b6000614065600a83613284565b91506140708261402f565b602082019050919050565b6000602082019050818103600083015261409481614058565b9050919050565b7f5a65726f2071756f746500000000000000000000000000000000000000000000600082015250565b60006140d1600a83613284565b91506140dc8261409b565b602082019050919050565b60006020820190508181036000830152614100816140c4565b905091905056fea2646970667358221220142a0596b7b542f501f42aba97d71af90135353d23207defbf2621deb502e1f564736f6c63430008140033",
  "linkReferences": {},
  "deployedLinkReferences": {}
}