{
  "_format": "hh-sol-artifact-1",
  "contractName": "LendingPoolTest",
  "sourceName": "contracts/LendingPoolTest.sol",
  "abi": [
    {
      "inputs": [],
      "stateMutability": "nonpayable",
      "type": "constructor"
    },
    {
      "anonymous": false,
      "inputs": [
        {
          "indexed": true,
          "internalType": "address",
          "name": "user",
          "type": "address"
        },
        {
          "indexed": true,
          "internalType": "address",
          "name": "token",
          "type": "address"
        },
        {
          "indexed": false,
          "internalType": "uint256",
          "name": "amount",
          "type": "uint256"
        }
      ],
      "name": "Borrowed",
      "type": "event"
    },
    {
      "anonymous": false,
      "inputs": [
        {
          "indexed": true,
          "internalType": "address",
          "name": "user",
          "type": "address"
        },
        {
          "indexed": true,
          "internalType": "address",
          "name": "token",
          "type": "address"
        },
        {
          "indexed": false,
          "internalType": "uint256",
          "name": "amount",
          "type": "uint256"
        }
      ],
      "name": "Deposited",
      "type": "event"
    },
    {
      "anonymous": false,
      "inputs": [
        {
          "indexed": true,
          "internalType": "address",
          "name": "user",
          "type": "address"
        },
        {
          "indexed": false,
          "internalType": "uint256",
          "name": "totalDebtUSD",
          "type": "uint256"
        },
        {
          "indexed": false,
          "internalType": "address[]",
          "name": "tokens",
          "type": "address[]"
        },
        {
          "indexed": false,
          "internalType": "uint256[]",
          "name": "amounts",
          "type": "uint256[]"
        }
      ],
      "name": "Liquidated",
      "type": "event"
    },
    {
      "anonymous": false,
      "inputs": [
        {
          "indexed": true,
          "internalType": "address",
          "name": "previousOwner",
          "type": "address"
        },
        {
          "indexed": true,
          "internalType": "address",
          "name": "newOwner",
          "type": "address"
        }
      ],
      "name": "OwnershipTransferred",
      "type": "event"
    },
    {
      "anonymous": false,
      "inputs": [
        {
          "indexed": true,
          "internalType": "address",
          "name": "user",
          "type": "address"
        },
        {
          "indexed": true,
          "internalType": "address",
          "name": "token",
          "type": "address"
        },
        {
          "indexed": false,
          "internalType": "uint256",
          "name": "amount",
          "type": "uint256"
        }
      ],
      "name": "PoolFunded",
      "type": "event"
    },
    {
      "anonymous": false,
      "inputs": [
        {
          "indexed": true,
          "internalType": "address",
          "name": "owner",
          "type": "address"
        },
        {
          "indexed": true,
          "internalType": "address",
          "name": "token",
          "type": "address"
        },
        {
          "indexed": false,
          "internalType": "uint256",
          "name": "amount",
          "type": "uint256"
        }
      ],
      "name": "PoolFundsWithdrawn",
      "type": "event"
    },
    {
      "anonymous": false,
      "inputs": [
        {
          "indexed": true,
          "internalType": "address",
          "name": "user",
          "type": "address"
        },
        {
          "indexed": true,
          "internalType": "address",
          "name": "token",
          "type": "address"
        },
        {
          "indexed": false,
          "internalType": "uint256",
          "name": "amount",
          "type": "uint256"
        }
      ],
      "name": "Repaid",
      "type": "event"
    },
    {
      "anonymous": false,
      "inputs": [
        {
          "indexed": true,
          "internalType": "address",
          "name": "token",
          "type": "address"
        },
        {
          "indexed": false,
          "internalType": "uint256",
          "name": "weight",
          "type": "uint256"
        }
      ],
      "name": "TokenAdded",
      "type": "event"
    },
    {
      "anonymous": false,
      "inputs": [
        {
          "indexed": true,
          "internalType": "address",
          "name": "user",
          "type": "address"
        },
        {
          "indexed": true,
          "internalType": "address",
          "name": "token",
          "type": "address"
        },
        {
          "indexed": false,
          "internalType": "uint256",
          "name": "amount",
          "type": "uint256"
        }
      ],
      "name": "Withdrawn",
      "type": "event"
    },
    {
      "inputs": [],
      "name": "CDT",
      "outputs": [
        {
          "internalType": "address",
          "name": "",
          "type": "address"
        }
      ],
      "stateMutability": "view",
      "type": "function"
    },
    {
      "inputs": [],
      "name": "CDT_WBNB_PAIR",
      "outputs": [
        {
          "internalType": "address",
          "name": "",
          "type": "address"
        }
      ],
      "stateMutability": "view",
      "type": "function"
    },
    {
      "inputs": [],
      "name": "LIQUIDATION_THRESHOLD",
      "outputs": [
        {
          "internalType": "uint256",
          "name": "",
          "type": "uint256"
        }
      ],
      "stateMutability": "view",
      "type": "function"
    },
    {
      "inputs": [],
      "name": "MAX_BORROW_RATIO",
      "outputs": [
        {
          "internalType": "uint256",
          "name": "",
          "type": "uint256"
        }
      ],
      "stateMutability": "view",
      "type": "function"
    },
    {
      "inputs": [],
      "name": "NATIVE_BNB",
      "outputs": [
        {
          "internalType": "address",
          "name": "",
          "type": "address"
        }
      ],
      "stateMutability": "view",
      "type": "function"
    },
    {
      "inputs": [],
      "name": "USDC",
      "outputs": [
        {
          "internalType": "address",
          "name": "",
          "type": "address"
        }
      ],
      "stateMutability": "view",
      "type": "function"
    },
    {
      "inputs": [],
      "name": "USDT",
      "outputs": [
        {
          "internalType": "address",
          "name": "",
          "type": "address"
        }
      ],
      "stateMutability": "view",
      "type": "function"
    },
    {
      "inputs": [],
      "name": "WBNB",
      "outputs": [
        {
          "internalType": "address",
          "name": "",
          "type": "address"
        }
      ],
      "stateMutability": "view",
      "type": "function"
    },
    {
      "inputs": [],
      "name": "WBNB_USDT_PAIR",
      "outputs": [
        {
          "internalType": "address",
          "name": "",
          "type": "address"
        }
      ],
      "stateMutability": "view",
      "type": "function"
    },
    {
      "inputs": [],
      "name": "WETH",
      "outputs": [
        {
          "internalType": "address",
          "name": "",
          "type": "address"
        }
      ],
      "stateMutability": "view",
      "type": "function"
    },
    {
      "inputs": [],
      "name": "WETH_USDT_PAIR",
      "outputs": [
        {
          "internalType": "address",
          "name": "",
          "type": "address"
        }
      ],
      "stateMutability": "view",
      "type": "function"
    },
    {
      "inputs": [
        {
          "internalType": "address",
          "name": "token",
          "type": "address"
        },
        {
          "internalType": "uint256",
          "name": "weight",
          "type": "uint256"
        }
      ],
      "name": "_addToken",
      "outputs": [],
      "stateMutability": "nonpayable",
      "type": "function"
    },
    {
      "inputs": [
        {
          "internalType": "address",
          "name": "token",
          "type": "address"
        },
        {
          "internalType": "uint256",
          "name": "amount",
          "type": "uint256"
        }
      ],
      "name": "borrow",
      "outputs": [],
      "stateMutability": "payable",
      "type": "function"
    },
    {
      "inputs": [
        {
          "internalType": "address",
          "name": "token",
          "type": "address"
        },
        {
          "internalType": "uint256",
          "name": "amount",
          "type": "uint256"
        }
      ],
      "name": "deposit",
      "outputs": [],
      "stateMutability": "payable",
      "type": "function"
    },
    {
      "inputs": [
        {
          "internalType": "address",
          "name": "token",
          "type": "address"
        },
        {
          "internalType": "uint256",
          "name": "amount",
          "type": "uint256"
        }
      ],
      "name": "fundPool",
      "outputs": [],
      "stateMutability": "payable",
      "type": "function"
    },
    {
      "inputs": [
        {
          "internalType": "address",
          "name": "user",
          "type": "address"
        }
      ],
      "name": "getBorrowCapacity",
      "outputs": [
        {
          "internalType": "uint256",
          "name": "cap",
          "type": "uint256"
        }
      ],
      "stateMutability": "view",
      "type": "function"
    },
    {
      "inputs": [
        {
          "internalType": "address",
          "name": "user",
          "type": "address"
        }
      ],
      "name": "getIndebtedness",
      "outputs": [
        {
          "internalType": "uint256",
          "name": "",
          "type": "uint256"
        }
      ],
      "stateMutability": "view",
      "type": "function"
    },
    {
      "inputs": [],
      "name": "getSupportedTokens",
      "outputs": [
        {
          "internalType": "address[]",
          "name": "",
          "type": "address[]"
        }
      ],
      "stateMutability": "view",
      "type": "function"
    },
    {
      "inputs": [
        {
          "internalType": "address",
          "name": "token",
          "type": "address"
        }
      ],
      "name": "getTokenPrice",
      "outputs": [
        {
          "internalType": "uint256",
          "name": "",
          "type": "uint256"
        }
      ],
      "stateMutability": "view",
      "type": "function"
    },
    {
      "inputs": [
        {
          "internalType": "address",
          "name": "user",
          "type": "address"
        }
      ],
      "name": "getTotalDebtUSD",
      "outputs": [
        {
          "internalType": "uint256",
          "name": "total",
          "type": "uint256"
        }
      ],
      "stateMutability": "view",
      "type": "function"
    },
    {
      "inputs": [
        {
          "internalType": "address",
          "name": "user",
          "type": "address"
        }
      ],
      "name": "liquidate",
      "outputs": [],
      "stateMutability": "nonpayable",
      "type": "function"
    },
    {
      "inputs": [],
      "name": "owner",
      "outputs": [
        {
          "internalType": "address",
          "name": "",
          "type": "address"
        }
      ],
      "stateMutability": "view",
      "type": "function"
    },
    {
      "inputs": [],
      "name": "renounceOwnership",
      "outputs": [],
      "stateMutability": "nonpayable",
      "type": "function"
    },
    {
      "inputs": [
        {
          "internalType": "address",
          "name": "token",
          "type": "address"
        },
        {
          "internalType": "uint256",
          "name": "amount",
          "type": "uint256"
        }
      ],
      "name": "repay",
      "outputs": [],
      "stateMutability": "payable",
      "type": "function"
    },
    {
      "inputs": [
        {
          "internalType": "address",
          "name": "",
          "type": "address"
        }
      ],
      "name": "reserves",
      "outputs": [
        {
          "internalType": "uint256",
          "name": "",
          "type": "uint256"
        }
      ],
      "stateMutability": "view",
      "type": "function"
    },
    {
      "inputs": [
        {
          "internalType": "uint256",
          "name": "",
          "type": "uint256"
        }
      ],
      "name": "supportedTokens",
      "outputs": [
        {
          "internalType": "address",
          "name": "",
          "type": "address"
        }
      ],
      "stateMutability": "view",
      "type": "function"
    },
    {
      "inputs": [
        {
          "internalType": "address",
          "name": "",
          "type": "address"
        }
      ],
      "name": "tokenConfigs",
      "outputs": [
        {
          "internalType": "uint256",
          "name": "weight",
          "type": "uint256"
        },
        {
          "internalType": "bool",
          "name": "isActive",
          "type": "bool"
        }
      ],
      "stateMutability": "view",
      "type": "function"
    },
    {
      "inputs": [
        {
          "internalType": "address",
          "name": "newOwner",
          "type": "address"
        }
      ],
      "name": "transferOwnership",
      "outputs": [],
      "stateMutability": "nonpayable",
      "type": "function"
    },
    {
      "inputs": [
        {
          "internalType": "address",
          "name": "",
          "type": "address"
        },
        {
          "internalType": "address",
          "name": "",
          "type": "address"
        }
      ],
      "name": "userCollateral",
      "outputs": [
        {
          "internalType": "uint256",
          "name": "amount",
          "type": "uint256"
        }
      ],
      "stateMutability": "view",
      "type": "function"
    },
    {
      "inputs": [
        {
          "internalType": "address",
          "name": "",
          "type": "address"
        },
        {
          "internalType": "address",
          "name": "",
          "type": "address"
        }
      ],
      "name": "userDebt",
      "outputs": [
        {
          "internalType": "uint256",
          "name": "",
          "type": "uint256"
        }
      ],
      "stateMutability": "view",
      "type": "function"
    },
    {
      "inputs": [
        {
          "internalType": "address",
          "name": "token",
          "type": "address"
        },
        {
          "internalType": "uint256",
          "name": "amount",
          "type": "uint256"
        }
      ],
      "name": "withdraw",
      "outputs": [],
      "stateMutability": "nonpayable",
      "type": "function"
    },
    {
      "inputs": [
        {
          "internalType": "address",
          "name": "token",
          "type": "address"
        },
        {
          "internalType": "uint256",
          "name": "amount",
          "type": "uint256"
        }
      ],
      "name": "withdrawPoolFunds",
      "outputs": [],
      "stateMutability": "nonpayable",
      "type": "function"
    },
    {
      "stateMutability": "payable",
      "type": "receive"
    }
  ],
  "bytecode": "0x60806040523480156200001157600080fd5b506200003262000026620000ef60201b60201c565b620000f760201b60201c565b60018081905550620000607355d398326f99059ff775485246999027b31979556064620001bb60201b60201c565b6200007460006046620001bb60201b60201c565b6200009b738ac76a51cc950d9822d68b83fe1ad97b32cd580d6064620001bb60201b60201c565b620000c2732170ed0880ac9a755fd29b2688956bd959f933f86046620001bb60201b60201c565b620000e9730cbd6fadcf8096cc9a43d90b45f65826102e3ece6032620001bb60201b60201c565b6200063b565b600033905090565b60008060009054906101000a900473ffffffffffffffffffffffffffffffffffffffff169050816000806101000a81548173ffffffffffffffffffffffffffffffffffffffff021916908373ffffffffffffffffffffffffffffffffffffffff1602179055508173ffffffffffffffffffffffffffffffffffffffff168173ffffffffffffffffffffffffffffffffffffffff167f8be0079c531659141344cd1fd0a4f28419497f9722a3daafe3b4186f6b6457e060405160405180910390a35050565b620001cb620003e260201b60201c565b600081118015620001dd575060648111155b6200021f576040517f08c379a00000000000000000000000000000000000000000000000000000000081526004016200021690620004fd565b60405180910390fd5b6000600460008473ffffffffffffffffffffffffffffffffffffffff1673ffffffffffffffffffffffffffffffffffffffff1681526020019081526020016000206000015414620002a7576040517f08c379a00000000000000000000000000000000000000000000000000000000081526004016200029e906200056f565b60405180910390fd5b604051806040016040528082815260200160011515815250600460008473ffffffffffffffffffffffffffffffffffffffff1673ffffffffffffffffffffffffffffffffffffffff1681526020019081526020016000206000820151816000015560208201518160010160006101000a81548160ff0219169083151502179055509050506006829080600181540180825580915050600190039060005260206000200160009091909190916101000a81548173ffffffffffffffffffffffffffffffffffffffff021916908373ffffffffffffffffffffffffffffffffffffffff1602179055508173ffffffffffffffffffffffffffffffffffffffff167ff4c563a3ea86ff1f4275e8c207df0375a51963f2b831b7bf4da8be938d92876c82604051620003d69190620005ac565b60405180910390a25050565b620003f2620000ef60201b60201c565b73ffffffffffffffffffffffffffffffffffffffff16620004186200047360201b60201c565b73ffffffffffffffffffffffffffffffffffffffff161462000471576040517f08c379a0000000000000000000000000000000000000000000000000000000008152600401620004689062000619565b60405180910390fd5b565b60008060009054906101000a900473ffffffffffffffffffffffffffffffffffffffff16905090565b600082825260208201905092915050565b7f496e76616c696420776569676874000000000000000000000000000000000000600082015250565b6000620004e5600e836200049c565b9150620004f282620004ad565b602082019050919050565b600060208201905081810360008301526200051881620004d6565b9050919050565b7f546f6b656e206578697374730000000000000000000000000000000000000000600082015250565b600062000557600c836200049c565b915062000564826200051f565b602082019050919050565b600060208201905081810360008301526200058a8162000548565b9050919050565b6000819050919050565b620005a68162000591565b82525050565b6000602082019050620005c360008301846200059b565b92915050565b7f4f776e61626c653a2063616c6c6572206973206e6f7420746865206f776e6572600082015250565b6000620006016020836200049c565b91506200060e82620005c9565b602082019050919050565b600060208201905081810360008301526200063481620005f2565b9050919050565b61412f806200064b6000396000f3fe6080604052600436106101e75760003560e01c806389a3027111610102578063d02641a011610095578063f2fde38b11610064578063f2fde38b146107ca578063f38d1198146107f3578063f3fef3a31461081e578063fcccc4d914610847576102c4565b8063d02641a0146106fc578063d3c7c2c714610739578063d66bd52414610764578063d8c94cd5146107a1576102c4565b806391c39b51116100d157806391c39b511461062c578063ad5c464814610669578063c54e44eb14610694578063c6255626146106bf576102c4565b806389a30271146105805780638da5cb5b146105ab5780638dd95002146105d657806390a8ae9b14610601576102c4565b80634b8a35291161017a5780636e0e5aa7116101495780636e0e5aa7146104d6578063715018a614610513578063876326ca1461052a57806387e2c18914610555576102c4565b80634b8a3529146104275780635c56c8cb1461044357806368fb5c5914610480578063698f7b21146104ab576102c4565b80632bfd5146116101b65780632bfd51461461039d5780632f865568146103b957806335a6b967146103e257806347e7ef241461040b576102c4565b806314c8ad2c146102c95780631b69dc5f1461030657806322867d78146103445780632b92a07d14610360576102c4565b366102c4576101f4610872565b6101fe60006108c1565b34600560008073ffffffffffffffffffffffffffffffffffffffff1673ffffffffffffffffffffffffffffffffffffffff168152602001908152602001600020600082825461024d9190612f61565b92505081905550600073ffffffffffffffffffffffffffffffffffffffff163373ffffffffffffffffffffffffffffffffffffffff167faa1ff9f7fea9b0b6004b27d6dafaf7545a080426cc7115c6a8bd9019957c4353346040516102b29190612fa4565b60405180910390a36102c2610953565b005b600080fd5b3480156102d557600080fd5b506102f060048036038101906102eb9190613022565b61095c565b6040516102fd9190612fa4565b60405180910390f35b34801561031257600080fd5b5061032d60048036038101906103289190613062565b610981565b60405161033b9291906130aa565b60405180910390f35b61035e600480360381019061035991906130ff565b6109b2565b005b34801561036c57600080fd5b5061038760048036038101906103829190613022565b610c2a565b6040516103949190612fa4565b60405180910390f35b6103b760048036038101906103b291906130ff565b610c55565b005b3480156103c557600080fd5b506103e060048036038101906103db9190613062565b610d7b565b005b3480156103ee57600080fd5b50610409600480360381019061040491906130ff565b611444565b005b610425600480360381019061042091906130ff565b6115cb565b005b610441600480360381019061043c91906130ff565b611731565b005b34801561044f57600080fd5b5061046a60048036038101906104659190613062565b611a1a565b6040516104779190612fa4565b60405180910390f35b34801561048c57600080fd5b50610495611a60565b6040516104a2919061314e565b60405180910390f35b3480156104b757600080fd5b506104c0611a78565b6040516104cd919061314e565b60405180910390f35b3480156104e257600080fd5b506104fd60048036038101906104f89190613062565b611a90565b60405161050a9190612fa4565b60405180910390f35b34801561051f57600080fd5b50610528611c24565b005b34801561053657600080fd5b5061053f611c38565b60405161054c9190612fa4565b60405180910390f35b34801561056157600080fd5b5061056a611c3d565b604051610577919061314e565b60405180910390f35b34801561058c57600080fd5b50610595611c55565b6040516105a2919061314e565b60405180910390f35b3480156105b757600080fd5b506105c0611c6d565b6040516105cd919061314e565b60405180910390f35b3480156105e257600080fd5b506105eb611c96565b6040516105f8919061314e565b60405180910390f35b34801561060d57600080fd5b50610616611cae565b6040516106239190612fa4565b60405180910390f35b34801561063857600080fd5b50610653600480360381019061064e9190613062565b611cb3565b6040516106609190612fa4565b60405180910390f35b34801561067557600080fd5b5061067e611de5565b60405161068b919061314e565b60405180910390f35b3480156106a057600080fd5b506106a9611dfd565b6040516106b6919061314e565b60405180910390f35b3480156106cb57600080fd5b506106e660048036038101906106e19190613169565b611e15565b6040516106f3919061314e565b60405180910390f35b34801561070857600080fd5b50610723600480360381019061071e9190613062565b611e54565b6040516107309190612fa4565b60405180910390f35b34801561074557600080fd5b5061074e6122d3565b60405161075b9190613254565b60405180910390f35b34801561077057600080fd5b5061078b60048036038101906107869190613062565b612361565b6040516107989190612fa4565b60405180910390f35b3480156107ad57600080fd5b506107c860048036038101906107c391906130ff565b612379565b005b3480156107d657600080fd5b506107f160048036038101906107ec9190613062565b61258f565b005b3480156107ff57600080fd5b50610808612612565b604051610815919061314e565b60405180910390f35b34801561082a57600080fd5b50610845600480360381019061084091906130ff565b61262a565b005b34801561085357600080fd5b5061085c612943565b604051610869919061314e565b60405180910390f35b6002600154036108b7576040517f08c379a00000000000000000000000000000000000000000000000000000000081526004016108ae906132d3565b60405180910390fd5b6002600181905550565b600460008273ffffffffffffffffffffffffffffffffffffffff1673ffffffffffffffffffffffffffffffffffffffff16815260200190815260200160002060010160009054906101000a900460ff16610950576040517f08c379a00000000000000000000000000000000000000000000000000000000081526004016109479061333f565b60405180910390fd5b50565b60018081905550565b6003602052816000526040600020602052806000526040600020600091509150505481565b60046020528060005260406000206000915090508060000154908060010160009054906101000a900460ff16905082565b6109ba610872565b6109c3826108c1565b60008111610a06576040517f08c379a00000000000000000000000000000000000000000000000000000000081526004016109fd906133ab565b60405180910390fd5b80600360003373ffffffffffffffffffffffffffffffffffffffff1673ffffffffffffffffffffffffffffffffffffffff16815260200190815260200160002060008473ffffffffffffffffffffffffffffffffffffffff1673ffffffffffffffffffffffffffffffffffffffff168152602001908152602001600020541015610ac5576040517f08c379a0000000000000000000000000000000000000000000000000000000008152600401610abc90613417565b60405180910390fd5b610ad0823383612948565b80600360003373ffffffffffffffffffffffffffffffffffffffff1673ffffffffffffffffffffffffffffffffffffffff16815260200190815260200160002060008473ffffffffffffffffffffffffffffffffffffffff1673ffffffffffffffffffffffffffffffffffffffff1681526020019081526020016000206000828254610b5c9190613437565b9250508190555080600560008473ffffffffffffffffffffffffffffffffffffffff1673ffffffffffffffffffffffffffffffffffffffff1681526020019081526020016000206000828254610bb29190612f61565b925050819055508173ffffffffffffffffffffffffffffffffffffffff163373ffffffffffffffffffffffffffffffffffffffff167f0a3fbbea70e93f2daafa3102f5c9a1b8315e6d7a1e43e4bc020bc1162327470a83604051610c169190612fa4565b60405180910390a3610c26610953565b5050565b6002602052816000526040600020602052806000526040600020600091509150508060000154905081565b610c5d610872565b610c66826108c1565b60008111610ca9576040517f08c379a0000000000000000000000000000000000000000000000000000000008152600401610ca0906133ab565b60405180910390fd5b610cb4823383612948565b80600560008473ffffffffffffffffffffffffffffffffffffffff1673ffffffffffffffffffffffffffffffffffffffff1681526020019081526020016000206000828254610d039190612f61565b925050819055508173ffffffffffffffffffffffffffffffffffffffff163373ffffffffffffffffffffffffffffffffffffffff167faa1ff9f7fea9b0b6004b27d6dafaf7545a080426cc7115c6a8bd9019957c435383604051610d679190612fa4565b60405180910390a3610d77610953565b5050565b610d83610872565b6000610d8e82611cb3565b905060008111610dd3576040517f08c379a0000000000000000000000000000000000000000000000000000000008152600401610dca906134b7565b60405180910390fd5b6050610dde83611a1a565b11610e1e576040517f08c379a0000000000000000000000000000000000000000000000000000000008152600401610e1590613523565b60405180910390fd5b600060068054905067ffffffffffffffff811115610e3f57610e3e613543565b5b604051908082528060200260200182016040528015610e6d5781602001602082028036833780820191505090505b509050600060068054905067ffffffffffffffff811115610e9157610e90613543565b5b604051908082528060200260200182016040528015610ebf5781602001602082028036833780820191505090505b50905060008060005b6006805490508110156111c857600060068281548110610eeb57610eea613572565b5b9060005260206000200160009054906101000a900473ffffffffffffffffffffffffffffffffffffffff1690506000600260008a73ffffffffffffffffffffffffffffffffffffffff1673ffffffffffffffffffffffffffffffffffffffff16815260200190815260200160002060008373ffffffffffffffffffffffffffffffffffffffff1673ffffffffffffffffffffffffffffffffffffffff168152602001908152602001600020600001549050600081111561113157670de0b6b3a7640000610fb783611e54565b82610fc291906135a1565b610fcc9190613612565b85610fd79190612f61565b945080600560008473ffffffffffffffffffffffffffffffffffffffff1673ffffffffffffffffffffffffffffffffffffffff16815260200190815260200160002060008282546110289190612f61565b925050819055506000600260008b73ffffffffffffffffffffffffffffffffffffffff1673ffffffffffffffffffffffffffffffffffffffff16815260200190815260200160002060008473ffffffffffffffffffffffffffffffffffffffff1673ffffffffffffffffffffffffffffffffffffffff16815260200190815260200160002060000181905550818785815181106110c8576110c7613572565b5b602002602001019073ffffffffffffffffffffffffffffffffffffffff16908173ffffffffffffffffffffffffffffffffffffffff16815250508086858151811061111657611115613572565b5b602002602001018181525050838061112d90613643565b9450505b6000600360008b73ffffffffffffffffffffffffffffffffffffffff1673ffffffffffffffffffffffffffffffffffffffff16815260200190815260200160002060008473ffffffffffffffffffffffffffffffffffffffff1673ffffffffffffffffffffffffffffffffffffffff16815260200190815260200160002081905550505080806111c090613643565b915050610ec8565b508482101561120c576040517f08c379a0000000000000000000000000000000000000000000000000000000008152600401611203906136d7565b60405180910390fd5b6000858361121a9190613437565b905060008111156113db576000611244730cbd6fadcf8096cc9a43d90b45f65826102e3ece611e54565b9050600081670de0b6b3a76400008461125d91906135a1565b6112679190613612565b90508060056000730cbd6fadcf8096cc9a43d90b45f65826102e3ece73ffffffffffffffffffffffffffffffffffffffff1673ffffffffffffffffffffffffffffffffffffffff16815260200190815260200160002054106113d85780600260008b73ffffffffffffffffffffffffffffffffffffffff1673ffffffffffffffffffffffffffffffffffffffff1681526020019081526020016000206000730cbd6fadcf8096cc9a43d90b45f65826102e3ece73ffffffffffffffffffffffffffffffffffffffff1673ffffffffffffffffffffffffffffffffffffffff16815260200190815260200160002060000160008282546113669190612f61565b925050819055508060056000730cbd6fadcf8096cc9a43d90b45f65826102e3ece73ffffffffffffffffffffffffffffffffffffffff1673ffffffffffffffffffffffffffffffffffffffff16815260200190815260200160002060008282546113d09190613437565b925050819055505b50505b8185528184528673ffffffffffffffffffffffffffffffffffffffff167fcb722688c8955b4c96372fecda38abfc2bbd497f1983321cb14e95e72dd9807487878760405161142b939291906137b5565b60405180910390a2505050505050611441610953565b50565b61144c612acb565b611454610872565b61145d826108c1565b6000811180156114ac575080600560008473ffffffffffffffffffffffffffffffffffffffff1673ffffffffffffffffffffffffffffffffffffffff1681526020019081526020016000205410155b6114eb576040517f08c379a00000000000000000000000000000000000000000000000000000000081526004016114e290613846565b60405180910390fd5b80600560008473ffffffffffffffffffffffffffffffffffffffff1673ffffffffffffffffffffffffffffffffffffffff168152602001908152602001600020600082825461153a9190613437565b925050819055506115538261154d611c6d565b83612b49565b8173ffffffffffffffffffffffffffffffffffffffff16611572611c6d565b73ffffffffffffffffffffffffffffffffffffffff167f0a26769576935ab95194f046baee424ca3b9e22591a677ffba6d36301f2f237e836040516115b79190612fa4565b60405180910390a36115c7610953565b5050565b6115d3610872565b6115dc826108c1565b6000811161161f576040517f08c379a0000000000000000000000000000000000000000000000000000000008152600401611616906133ab565b60405180910390fd5b61162a823383612948565b80600260003373ffffffffffffffffffffffffffffffffffffffff1673ffffffffffffffffffffffffffffffffffffffff16815260200190815260200160002060008473ffffffffffffffffffffffffffffffffffffffff1673ffffffffffffffffffffffffffffffffffffffff16815260200190815260200160002060000160008282546116b99190612f61565b925050819055508173ffffffffffffffffffffffffffffffffffffffff163373ffffffffffffffffffffffffffffffffffffffff167f8752a472e571a816aea92eec8dae9baf628e840f4929fbcc2d155e6233ff68a78360405161171d9190612fa4565b60405180910390a361172d610953565b5050565b611739610872565b611742826108c1565b60008111611785576040517f08c379a000000000000000000000000000000000000000000000000000000000815260040161177c906133ab565b60405180910390fd5b80600560008473ffffffffffffffffffffffffffffffffffffffff1673ffffffffffffffffffffffffffffffffffffffff168152602001908152602001600020541015611807576040517f08c379a00000000000000000000000000000000000000000000000000000000081526004016117fe906138b2565b60405180910390fd5b6000670de0b6b3a764000061181b84611e54565b8361182691906135a1565b6118309190613612565b9050600061183d33611a90565b9050600061184a33611cb3565b9050606460508361185b91906135a1565b6118659190613612565b83826118719190612f61565b11156118b2576040517f08c379a00000000000000000000000000000000000000000000000000000000081526004016118a99061391e565b60405180910390fd5b83600360003373ffffffffffffffffffffffffffffffffffffffff1673ffffffffffffffffffffffffffffffffffffffff16815260200190815260200160002060008773ffffffffffffffffffffffffffffffffffffffff1673ffffffffffffffffffffffffffffffffffffffff168152602001908152602001600020600082825461193e9190612f61565b9250508190555083600560008773ffffffffffffffffffffffffffffffffffffffff1673ffffffffffffffffffffffffffffffffffffffff16815260200190815260200160002060008282546119949190613437565b925050819055506119a6853386612b49565b8473ffffffffffffffffffffffffffffffffffffffff163373ffffffffffffffffffffffffffffffffffffffff167f3fc499aeb0bb1cb58b6de8b02b3f86f4e7394e9690bef0110e32ced8a563104586604051611a039190612fa4565b60405180910390a3505050611a16610953565b5050565b600080611a2683611a90565b905060008114611a5557806064611a3c85611cb3565b611a4691906135a1565b611a509190613612565b611a58565b60005b915050919050565b73be141893e4c6ad9272e8c04bab7e6a10604501a581565b734c2b1f4de009b58498b8b66e10a231a1b233277e81565b600080600090505b600680549050811015611c1e57600060068281548110611abb57611aba613572565b5b9060005260206000200160009054906101000a900473ffffffffffffffffffffffffffffffffffffffff1690506000600260008673ffffffffffffffffffffffffffffffffffffffff1673ffffffffffffffffffffffffffffffffffffffff16815260200190815260200160002060008373ffffffffffffffffffffffffffffffffffffffff1673ffffffffffffffffffffffffffffffffffffffff1681526020019081526020016000206000015490506000811115611c09576000670de0b6b3a7640000611b8984611e54565b83611b9491906135a1565b611b9e9190613612565b90506064600460008573ffffffffffffffffffffffffffffffffffffffff1673ffffffffffffffffffffffffffffffffffffffff1681526020019081526020016000206000015482611bf091906135a1565b611bfa9190613612565b85611c059190612f61565b9450505b50508080611c1690613643565b915050611a98565b50919050565b611c2c612acb565b611c366000612cf2565b565b605081565b73f8104aaa719d31ea25dc494576593c10a8f929e681565b738ac76a51cc950d9822d68b83fe1ad97b32cd580d81565b60008060009054906101000a900473ffffffffffffffffffffffffffffffffffffffff16905090565b73bb4cdb9cbd36b01bd1cbaebf2de08d9173bc095c81565b605081565b600080600090505b600680549050811015611ddf57600060068281548110611cde57611cdd613572565b5b9060005260206000200160009054906101000a900473ffffffffffffffffffffffffffffffffffffffff1690506000600360008673ffffffffffffffffffffffffffffffffffffffff1673ffffffffffffffffffffffffffffffffffffffff16815260200190815260200160002060008373ffffffffffffffffffffffffffffffffffffffff1673ffffffffffffffffffffffffffffffffffffffff1681526020019081526020016000205490506000811115611dca57670de0b6b3a7640000611da783611e54565b82611db291906135a1565b611dbc9190613612565b84611dc79190612f61565b93505b50508080611dd790613643565b915050611cbb565b50919050565b732170ed0880ac9a755fd29b2688956bd959f933f881565b7355d398326f99059ff775485246999027b319795581565b60068181548110611e2557600080fd5b906000526020600020016000915054906101000a900473ffffffffffffffffffffffffffffffffffffffff1681565b600060614603611e6e57670de0b6b3a764000090506122ce565b611e77826108c1565b7355d398326f99059ff775485246999027b319795573ffffffffffffffffffffffffffffffffffffffff168273ffffffffffffffffffffffffffffffffffffffff161480611f045750738ac76a51cc950d9822d68b83fe1ad97b32cd580d73ffffffffffffffffffffffffffffffffffffffff168273ffffffffffffffffffffffffffffffffffffffff16145b15611f1957670de0b6b3a764000090506122ce565b600073ffffffffffffffffffffffffffffffffffffffff168273ffffffffffffffffffffffffffffffffffffffff161480611f93575073bb4cdb9cbd36b01bd1cbaebf2de08d9173bc095c73ffffffffffffffffffffffffffffffffffffffff168273ffffffffffffffffffffffffffffffffffffffff16145b15611fe657611fdf734c2b1f4de009b58498b8b66e10a231a1b233277e7355d398326f99059ff775485246999027b319795573bb4cdb9cbd36b01bd1cbaebf2de08d9173bc095c612db6565b90506122ce565b732170ed0880ac9a755fd29b2688956bd959f933f873ffffffffffffffffffffffffffffffffffffffff168273ffffffffffffffffffffffffffffffffffffffff160361207b5761207473be141893e4c6ad9272e8c04bab7e6a10604501a57355d398326f99059ff775485246999027b3197955732170ed0880ac9a755fd29b2688956bd959f933f8612db6565b90506122ce565b730cbd6fadcf8096cc9a43d90b45f65826102e3ece73ffffffffffffffffffffffffffffffffffffffff168273ffffffffffffffffffffffffffffffffffffffff16036122935760006120e173bb4cdb9cbd36b01bd1cbaebf2de08d9173bc095c611e54565b90506000732170ed0880ac9a755fd29b2688956bd959f933f873ffffffffffffffffffffffffffffffffffffffff166370a0823173f8104aaa719d31ea25dc494576593c10a8f929e66040518263ffffffff1660e01b8152600401612146919061314e565b602060405180830381865afa158015612163573d6000803e3d6000fd5b505050506040513d601f19601f820116820180604052508101906121879190613953565b90506000730cbd6fadcf8096cc9a43d90b45f65826102e3ece73ffffffffffffffffffffffffffffffffffffffff166370a0823173f8104aaa719d31ea25dc494576593c10a8f929e66040518263ffffffff1660e01b81526004016121ec919061314e565b602060405180830381865afa158015612209573d6000803e3d6000fd5b505050506040513d601f19601f8201168201806040525081019061222d9190613953565b905060008111612272576040517f08c379a0000000000000000000000000000000000000000000000000000000008152600401612269906139cc565b60405180910390fd5b80828461227f91906135a1565b6122899190613612565b93505050506122ce565b6040517f08c379a00000000000000000000000000000000000000000000000000000000081526004016122c590613a38565b60405180910390fd5b919050565b6060600680548060200260200160405190810160405280929190818152602001828054801561235757602002820191906000526020600020905b8160009054906101000a900473ffffffffffffffffffffffffffffffffffffffff1673ffffffffffffffffffffffffffffffffffffffff168152602001906001019080831161230d575b5050505050905090565b60056020528060005260406000206000915090505481565b612381612acb565b600081118015612392575060648111155b6123d1576040517f08c379a00000000000000000000000000000000000000000000000000000000081526004016123c890613aa4565b60405180910390fd5b6000600460008473ffffffffffffffffffffffffffffffffffffffff1673ffffffffffffffffffffffffffffffffffffffff1681526020019081526020016000206000015414612456576040517f08c379a000000000000000000000000000000000000000000000000000000000815260040161244d90613b10565b60405180910390fd5b604051806040016040528082815260200160011515815250600460008473ffffffffffffffffffffffffffffffffffffffff1673ffffffffffffffffffffffffffffffffffffffff1681526020019081526020016000206000820151816000015560208201518160010160006101000a81548160ff0219169083151502179055509050506006829080600181540180825580915050600190039060005260206000200160009091909190916101000a81548173ffffffffffffffffffffffffffffffffffffffff021916908373ffffffffffffffffffffffffffffffffffffffff1602179055508173ffffffffffffffffffffffffffffffffffffffff167ff4c563a3ea86ff1f4275e8c207df0375a51963f2b831b7bf4da8be938d92876c826040516125839190612fa4565b60405180910390a25050565b612597612acb565b600073ffffffffffffffffffffffffffffffffffffffff168173ffffffffffffffffffffffffffffffffffffffff1603612606576040517f08c379a00000000000000000000000000000000000000000000000000000000081526004016125fd90613ba2565b60405180910390fd5b61260f81612cf2565b50565b730cbd6fadcf8096cc9a43d90b45f65826102e3ece81565b612632610872565b61263b826108c1565b6000811161267e576040517f08c379a0000000000000000000000000000000000000000000000000000000008152600401612675906133ab565b60405180910390fd5b80600260003373ffffffffffffffffffffffffffffffffffffffff1673ffffffffffffffffffffffffffffffffffffffff16815260200190815260200160002060008473ffffffffffffffffffffffffffffffffffffffff1673ffffffffffffffffffffffffffffffffffffffff168152602001908152602001600020600001541015612740576040517f08c379a000000000000000000000000000000000000000000000000000000000815260040161273790613c0e565b60405180910390fd5b6000670de0b6b3a764000061275484611e54565b8361275f91906135a1565b6127699190613612565b9050600061277633611cb3565b9050600061278333611a90565b9050828110156127c8576040517f08c379a00000000000000000000000000000000000000000000000000000000081526004016127bf90613c7a565b60405180910390fd5b60506064836127d791906135a1565b6127e19190613612565b83826127ed9190613437565b101561282e576040517f08c379a000000000000000000000000000000000000000000000000000000000815260040161282590613ce6565b60405180910390fd5b83600260003373ffffffffffffffffffffffffffffffffffffffff1673ffffffffffffffffffffffffffffffffffffffff16815260200190815260200160002060008773ffffffffffffffffffffffffffffffffffffffff1673ffffffffffffffffffffffffffffffffffffffff16815260200190815260200160002060000160008282546128bd9190613437565b925050819055506128cf853386612b49565b8473ffffffffffffffffffffffffffffffffffffffff163373ffffffffffffffffffffffffffffffffffffffff167fd1c19fbcd4551a5edfb66d43d2e337c04837afda3482b42bdf569a8fccdae5fb8660405161292c9190612fa4565b60405180910390a350505061293f610953565b5050565b600081565b600073ffffffffffffffffffffffffffffffffffffffff168373ffffffffffffffffffffffffffffffffffffffff16036129c3578034146129be576040517f08c379a00000000000000000000000000000000000000000000000000000000081526004016129b590613d52565b60405180910390fd5b612ac6565b60003414612a06576040517f08c379a00000000000000000000000000000000000000000000000000000000081526004016129fd90613dbe565b60405180910390fd5b8273ffffffffffffffffffffffffffffffffffffffff166323b872dd8330846040518463ffffffff1660e01b8152600401612a4393929190613dde565b6020604051808303816000875af1158015612a62573d6000803e3d6000fd5b505050506040513d601f19601f82011682018060405250810190612a869190613e41565b612ac5576040517f08c379a0000000000000000000000000000000000000000000000000000000008152600401612abc90613eba565b60405180910390fd5b5b505050565b612ad3612f20565b73ffffffffffffffffffffffffffffffffffffffff16612af1611c6d565b73ffffffffffffffffffffffffffffffffffffffff1614612b47576040517f08c379a0000000000000000000000000000000000000000000000000000000008152600401612b3e90613f26565b60405180910390fd5b565b600073ffffffffffffffffffffffffffffffffffffffff168373ffffffffffffffffffffffffffffffffffffffff1603612c2f5760008273ffffffffffffffffffffffffffffffffffffffff1682604051612ba390613f77565b60006040518083038185875af1925050503d8060008114612be0576040519150601f19603f3d011682016040523d82523d6000602084013e612be5565b606091505b5050905080612c29576040517f08c379a0000000000000000000000000000000000000000000000000000000008152600401612c2090613fd8565b60405180910390fd5b50612ced565b8273ffffffffffffffffffffffffffffffffffffffff1663a9059cbb83836040518363ffffffff1660e01b8152600401612c6a929190613ff8565b6020604051808303816000875af1158015612c89573d6000803e3d6000fd5b505050506040513d601f19601f82011682018060405250810190612cad9190613e41565b612cec576040517f08c379a0000000000000000000000000000000000000000000000000000000008152600401612ce39061406d565b60405180910390fd5b5b505050565b60008060009054906101000a900473ffffffffffffffffffffffffffffffffffffffff169050816000806101000a81548173ffffffffffffffffffffffffffffffffffffffff021916908373ffffffffffffffffffffffffffffffffffffffff1602179055508173ffffffffffffffffffffffffffffffffffffffff168173ffffffffffffffffffffffffffffffffffffffff167f8be0079c531659141344cd1fd0a4f28419497f9722a3daafe3b4186f6b6457e060405160405180910390a35050565b6000808373ffffffffffffffffffffffffffffffffffffffff166370a08231866040518263ffffffff1660e01b8152600401612df2919061314e565b602060405180830381865afa158015612e0f573d6000803e3d6000fd5b505050506040513d601f19601f82011682018060405250810190612e339190613953565b905060008373ffffffffffffffffffffffffffffffffffffffff166370a08231876040518263ffffffff1660e01b8152600401612e70919061314e565b602060405180830381865afa158015612e8d573d6000803e3d6000fd5b505050506040513d601f19601f82011682018060405250810190612eb19190613953565b905060008111612ef6576040517f08c379a0000000000000000000000000000000000000000000000000000000008152600401612eed906140d9565b60405180910390fd5b80670de0b6b3a764000083612f0b91906135a1565b612f159190613612565b925050509392505050565b600033905090565b6000819050919050565b7f4e487b7100000000000000000000000000000000000000000000000000000000600052601160045260246000fd5b6000612f6c82612f28565b9150612f7783612f28565b9250828201905080821115612f8f57612f8e612f32565b5b92915050565b612f9e81612f28565b82525050565b6000602082019050612fb96000830184612f95565b92915050565b600080fd5b600073ffffffffffffffffffffffffffffffffffffffff82169050919050565b6000612fef82612fc4565b9050919050565b612fff81612fe4565b811461300a57600080fd5b50565b60008135905061301c81612ff6565b92915050565b6000806040838503121561303957613038612fbf565b5b60006130478582860161300d565b92505060206130588582860161300d565b9150509250929050565b60006020828403121561307857613077612fbf565b5b60006130868482850161300d565b91505092915050565b60008115159050919050565b6130a48161308f565b82525050565b60006040820190506130bf6000830185612f95565b6130cc602083018461309b565b9392505050565b6130dc81612f28565b81146130e757600080fd5b50565b6000813590506130f9816130d3565b92915050565b6000806040838503121561311657613115612fbf565b5b60006131248582860161300d565b9250506020613135858286016130ea565b9150509250929050565b61314881612fe4565b82525050565b6000602082019050613163600083018461313f565b92915050565b60006020828403121561317f5761317e612fbf565b5b600061318d848285016130ea565b91505092915050565b600081519050919050565b600082825260208201905092915050565b6000819050602082019050919050565b6131cb81612fe4565b82525050565b60006131dd83836131c2565b60208301905092915050565b6000602082019050919050565b600061320182613196565b61320b81856131a1565b9350613216836131b2565b8060005b8381101561324757815161322e88826131d1565b9750613239836131e9565b92505060018101905061321a565b5085935050505092915050565b6000602082019050818103600083015261326e81846131f6565b905092915050565b600082825260208201905092915050565b7f5265656e7472616e637947756172643a207265656e7472616e742063616c6c00600082015250565b60006132bd601f83613276565b91506132c882613287565b602082019050919050565b600060208201905081810360008301526132ec816132b0565b9050919050565b7f556e737570706f7274656420746f6b656e000000000000000000000000000000600082015250565b6000613329601183613276565b9150613334826132f3565b602082019050919050565b600060208201905081810360008301526133588161331c565b9050919050565b7f416d6f756e74203d203000000000000000000000000000000000000000000000600082015250565b6000613395600a83613276565b91506133a08261335f565b602082019050919050565b600060208201905081810360008301526133c481613388565b9050919050565b7f546f6f206d756368000000000000000000000000000000000000000000000000600082015250565b6000613401600883613276565b915061340c826133cb565b602082019050919050565b60006020820190508181036000830152613430816133f4565b9050919050565b600061344282612f28565b915061344d83612f28565b925082820390508181111561346557613464612f32565b5b92915050565b7f4e6f206465627400000000000000000000000000000000000000000000000000600082015250565b60006134a1600783613276565b91506134ac8261346b565b602082019050919050565b600060208201905081810360008301526134d081613494565b9050919050565b7f4865616c74687900000000000000000000000000000000000000000000000000600082015250565b600061350d600783613276565b9150613518826134d7565b602082019050919050565b6000602082019050818103600083015261353c81613500565b9050919050565b7f4e487b7100000000000000000000000000000000000000000000000000000000600052604160045260246000fd5b7f4e487b7100000000000000000000000000000000000000000000000000000000600052603260045260246000fd5b60006135ac82612f28565b91506135b783612f28565b92508282026135c581612f28565b915082820484148315176135dc576135db612f32565b5b5092915050565b7f4e487b7100000000000000000000000000000000000000000000000000000000600052601260045260246000fd5b600061361d82612f28565b915061362883612f28565b925082613638576136376135e3565b5b828204905092915050565b600061364e82612f28565b91507fffffffffffffffffffffffffffffffffffffffffffffffffffffffffffffffff82036136805761367f612f32565b5b600182019050919050565b7f53686f727466616c6c0000000000000000000000000000000000000000000000600082015250565b60006136c1600983613276565b91506136cc8261368b565b602082019050919050565b600060208201905081810360008301526136f0816136b4565b9050919050565b600081519050919050565b600082825260208201905092915050565b6000819050602082019050919050565b61372c81612f28565b82525050565b600061373e8383613723565b60208301905092915050565b6000602082019050919050565b6000613762826136f7565b61376c8185613702565b935061377783613713565b8060005b838110156137a857815161378f8882613732565b975061379a8361374a565b92505060018101905061377b565b5085935050505092915050565b60006060820190506137ca6000830186612f95565b81810360208301526137dc81856131f6565b905081810360408301526137f08184613757565b9050949350505050565b7f496e76616c696400000000000000000000000000000000000000000000000000600082015250565b6000613830600783613276565b915061383b826137fa565b602082019050919050565b6000602082019050818103600083015261385f81613823565b9050919050565b7f4c6f772072657365727665000000000000000000000000000000000000000000600082015250565b600061389c600b83613276565b91506138a782613866565b602082019050919050565b600060208201905081810360008301526138cb8161388f565b9050919050565b7f45786365656473206c696d697400000000000000000000000000000000000000600082015250565b6000613908600d83613276565b9150613913826138d2565b602082019050919050565b60006020820190508181036000830152613937816138fb565b9050919050565b60008151905061394d816130d3565b92915050565b60006020828403121561396957613968612fbf565b5b60006139778482850161393e565b91505092915050565b7f5a65726f20434454000000000000000000000000000000000000000000000000600082015250565b60006139b6600883613276565b91506139c182613980565b602082019050919050565b600060208201905081810360008301526139e5816139a9565b9050919050565b7f4e6f207072696365000000000000000000000000000000000000000000000000600082015250565b6000613a22600883613276565b9150613a2d826139ec565b602082019050919050565b60006020820190508181036000830152613a5181613a15565b9050919050565b7f496e76616c696420776569676874000000000000000000000000000000000000600082015250565b6000613a8e600e83613276565b9150613a9982613a58565b602082019050919050565b60006020820190508181036000830152613abd81613a81565b9050919050565b7f546f6b656e206578697374730000000000000000000000000000000000000000600082015250565b6000613afa600c83613276565b9150613b0582613ac4565b602082019050919050565b60006020820190508181036000830152613b2981613aed565b9050919050565b7f4f776e61626c653a206e6577206f776e657220697320746865207a65726f206160008201527f6464726573730000000000000000000000000000000000000000000000000000602082015250565b6000613b8c602683613276565b9150613b9782613b30565b604082019050919050565b60006020820190508181036000830152613bbb81613b7f565b9050919050565b7f4c6f7720636f6c6c61746572616c000000000000000000000000000000000000600082015250565b6000613bf8600e83613276565b9150613c0382613bc2565b602082019050919050565b60006020820190508181036000830152613c2781613beb565b9050919050565b7f4578636565647320636170616369747900000000000000000000000000000000600082015250565b6000613c64601083613276565b9150613c6f82613c2e565b602082019050919050565b60006020820190508181036000830152613c9381613c57565b9050919050565b7f45786365656473204c5456000000000000000000000000000000000000000000600082015250565b6000613cd0600b83613276565b9150613cdb82613c9a565b602082019050919050565b60006020820190508181036000830152613cff81613cc3565b9050919050565b7f496e76616c696420424e42000000000000000000000000000000000000000000600082015250565b6000613d3c600b83613276565b9150613d4782613d06565b602082019050919050565b60006020820190508181036000830152613d6b81613d2f565b9050919050565b7f424e42206e6f7420616c6c6f7765640000000000000000000000000000000000600082015250565b6000613da8600f83613276565b9150613db382613d72565b602082019050919050565b60006020820190508181036000830152613dd781613d9b565b9050919050565b6000606082019050613df3600083018661313f565b613e00602083018561313f565b613e0d6040830184612f95565b949350505050565b613e1e8161308f565b8114613e2957600080fd5b50565b600081519050613e3b81613e15565b92915050565b600060208284031215613e5757613e56612fbf565b5b6000613e6584828501613e2c565b91505092915050565b7f4552433230206661696c65640000000000000000000000000000000000000000600082015250565b6000613ea4600c83613276565b9150613eaf82613e6e565b602082019050919050565b60006020820190508181036000830152613ed381613e97565b9050919050565b7f4f776e61626c653a2063616c6c6572206973206e6f7420746865206f776e6572600082015250565b6000613f10602083613276565b9150613f1b82613eda565b602082019050919050565b60006020820190508181036000830152613f3f81613f03565b9050919050565b600081905092915050565b50565b6000613f61600083613f46565b9150613f6c82613f51565b600082019050919050565b6000613f8282613f54565b9150819050919050565b7f424e42206661696c000000000000000000000000000000000000000000000000600082015250565b6000613fc2600883613276565b9150613fcd82613f8c565b602082019050919050565b60006020820190508181036000830152613ff181613fb5565b9050919050565b600060408201905061400d600083018561313f565b61401a6020830184612f95565b9392505050565b7f4552433230206661696c00000000000000000000000000000000000000000000600082015250565b6000614057600a83613276565b915061406282614021565b602082019050919050565b600060208201905081810360008301526140868161404a565b9050919050565b7f5a65726f2071756f746500000000000000000000000000000000000000000000600082015250565b60006140c3600a83613276565b91506140ce8261408d565b602082019050919050565b600060208201905081810360008301526140f2816140b6565b905091905056fea26469706673582212205ff4225547fdd2be7e9ff0b4e8e116682fa8f3081d72b3ed0570390b3f50bf7c64736f6c63430008130033",
  "linkReferences": {},
  "deployedLinkReferences": {}
}